{
  "_format": "hh-sol-artifact-1",
  "contractName": "Pool",
  "sourceName": "contracts/Pool.sol",
  "abi": [
    {
      "inputs": [],
      "stateMutability": "nonpayable",
      "type": "constructor"
    },
    {
      "inputs": [
        {
          "internalType": "address",
          "name": "owner",
          "type": "address"
        }
      ],
      "name": "OwnableInvalidOwner",
      "type": "error"
    },
    {
      "inputs": [
        {
          "internalType": "address",
          "name": "account",
          "type": "address"
        }
      ],
      "name": "OwnableUnauthorizedAccount",
      "type": "error"
    },
    {
      "anonymous": false,
      "inputs": [
        {
          "indexed": true,
          "internalType": "address",
          "name": "previousOwner",
          "type": "address"
        },
        {
          "indexed": true,
          "internalType": "address",
          "name": "newOwner",
          "type": "address"
        }
      ],
      "name": "OwnershipTransferred",
      "type": "event"
    },
    {
      "inputs": [],
      "name": "TVL",
      "outputs": [
        {
          "internalType": "uint256",
          "name": "",
          "type": "uint256"
        }
      ],
      "stateMutability": "view",
      "type": "function"
    },
    {
      "inputs": [
        {
          "internalType": "string",
          "name": "name",
          "type": "string"
        },
        {
          "internalType": "string",
          "name": "symbol",
          "type": "string"
        },
        {
          "internalType": "address",
          "name": "yearnVaultAddress",
          "type": "address"
        },
        {
          "internalType": "address",
          "name": "token",
          "type": "address"
        },
        {
          "internalType": "uint256",
          "name": "awardShare",
          "type": "uint256"
        }
      ],
      "name": "createPrizePool",
      "outputs": [
        {
          "internalType": "contract PrizePool",
          "name": "",
          "type": "address"
        }
      ],
      "stateMutability": "nonpayable",
      "type": "function"
    },
    {
      "inputs": [],
      "name": "fetchPools",
      "outputs": [
        {
          "components": [
            {
              "internalType": "address",
              "name": "prizePoolAddress",
              "type": "address"
            },
            {
              "internalType": "address",
              "name": "tokenAddress",
              "type": "address"
            },
            {
              "internalType": "address",
              "name": "yearnVaultAddress",
              "type": "address"
            },
            {
              "internalType": "uint256",
              "name": "depositionDeadline",
              "type": "uint256"
            },
            {
              "internalType": "uint256",
              "name": "withdrawalTime",
              "type": "uint256"
            },
            {
              "internalType": "uint256",
              "name": "winnerAwardShare",
              "type": "uint256"
            }
          ],
          "internalType": "struct Pool.PrizePoolStruct[]",
          "name": "",
          "type": "tuple[]"
        }
      ],
      "stateMutability": "view",
      "type": "function"
    },
    {
      "inputs": [
        {
          "internalType": "address",
          "name": "_user",
          "type": "address"
        }
      ],
      "name": "getUserTotalDeposit",
      "outputs": [
        {
          "internalType": "uint256",
          "name": "",
          "type": "uint256"
        }
      ],
      "stateMutability": "view",
      "type": "function"
    },
    {
      "inputs": [
        {
          "internalType": "address",
          "name": "",
          "type": "address"
        }
      ],
      "name": "globalDeposits",
      "outputs": [
        {
          "internalType": "uint256",
          "name": "",
          "type": "uint256"
        }
      ],
      "stateMutability": "view",
      "type": "function"
    },
    {
      "inputs": [],
      "name": "owner",
      "outputs": [
        {
          "internalType": "address",
          "name": "",
          "type": "address"
        }
      ],
      "stateMutability": "view",
      "type": "function"
    },
    {
      "inputs": [
        {
          "internalType": "uint256",
          "name": "",
          "type": "uint256"
        }
      ],
      "name": "prizePools",
      "outputs": [
        {
          "internalType": "address",
          "name": "prizePoolAddress",
          "type": "address"
        },
        {
          "internalType": "address",
          "name": "tokenAddress",
          "type": "address"
        },
        {
          "internalType": "address",
          "name": "yearnVaultAddress",
          "type": "address"
        },
        {
          "internalType": "uint256",
          "name": "depositionDeadline",
          "type": "uint256"
        },
        {
          "internalType": "uint256",
          "name": "withdrawalTime",
          "type": "uint256"
        },
        {
          "internalType": "uint256",
          "name": "winnerAwardShare",
          "type": "uint256"
        }
      ],
      "stateMutability": "view",
      "type": "function"
    },
    {
      "inputs": [],
      "name": "renounceOwnership",
      "outputs": [],
      "stateMutability": "nonpayable",
      "type": "function"
    },
    {
      "inputs": [
        {
          "internalType": "address",
          "name": "newOwner",
          "type": "address"
        }
      ],
      "name": "transferOwnership",
      "outputs": [],
      "stateMutability": "nonpayable",
      "type": "function"
    },
    {
      "inputs": [
        {
          "internalType": "uint256",
          "name": "_amount",
          "type": "uint256"
        },
        {
          "internalType": "address",
          "name": "_user",
          "type": "address"
        }
      ],
      "name": "updateUserDeposit",
      "outputs": [],
      "stateMutability": "nonpayable",
      "type": "function"
    }
  ],
  "bytecode": "0x608060405234801561001057600080fd5b50338061003757604051631e4fbdf760e01b81526000600482015260240160405180910390fd5b61004081610046565b50610096565b600080546001600160a01b038381166001600160a01b0319831681178455604051919092169283917f8be0079c531659141344cd1fd0a4f28419497f9722a3daafe3b4186f6b6457e09190a35050565b613bf9806100a56000396000f3fe60806040523480156200001157600080fd5b5060043610620000ab5760003560e01c8063e4d5e4ac116200006e578063e4d5e4ac1462000156578063edaf2d2e146200016d578063eddad3941462000177578063f2fde38b14620001cd578063f4fb3df414620001e457600080fd5b80630644445f14620000b057806360273e1f14620000d2578063715018a614620000eb5780638da5cb5b14620000f5578063a4c828dc146200011b575b600080fd5b620000ba62000207565b604051620000c9919062000630565b60405180910390f35b620000e9620000e3366004620006d5565b620002ae565b005b620000e9620002fa565b6000546001600160a01b03165b6040516001600160a01b039091168152602001620000c9565b620001476200012c36600462000704565b6001600160a01b031660009081526002602052604090205490565b604051908152602001620000c9565b6200010262000167366004620007d4565b62000312565b6200014760015481565b6200018e620001883660046200086c565b62000504565b604080516001600160a01b039788168152958716602087015293909516928401929092526060830152608082015260a081019190915260c001620000c9565b620000e9620001de36600462000704565b6200055b565b62000147620001f536600462000704565b60026020526000908152604090205481565b60606003805480602002602001604051908101604052809291908181526020016000905b82821015620002a55760008481526020908190206040805160c0810182526006860290920180546001600160a01b03908116845260018083015482168587015260028301549091169284019290925260038101546060840152600481015460808401526005015460a083015290835290920191016200022b565b50505050905090565b8160016000828254620002c2919062000886565b90915550506001600160a01b03811660009081526002602052604081208054849290620002f190849062000886565b90915550505050565b62000304620005a3565b620003106000620005d2565b565b60006200031e620005a3565b6000868686863087604051620003349062000622565b6200034596959493929190620008f6565b604051809103906000f08015801562000362573d6000803e3d6000fd5b50905060036040518060c00160405280836001600160a01b03168152602001866001600160a01b03168152602001876001600160a01b03168152602001836001600160a01b03166361603d896040518163ffffffff1660e01b8152600401602060405180830381865afa158015620003de573d6000803e3d6000fd5b505050506040513d601f19601f820116820180604052508101906200040491906200094f565b8152602001836001600160a01b03166374f47a7a6040518163ffffffff1660e01b8152600401602060405180830381865afa15801562000448573d6000803e3d6000fd5b505050506040513d601f19601f820116820180604052508101906200046e91906200094f565b81526020908101869052825460018181018555600094855293829020835160069092020180546001600160a01b039283166001600160a01b0319918216178255928401519481018054958316958416959095179094556040830151600285018054919092169216919091179055606081015160038301556080810151600483015560a00151600590910155905095945050505050565b600381815481106200051557600080fd5b60009182526020909120600690910201805460018201546002830154600384015460048501546005909501546001600160a01b0394851696509284169491909316929186565b62000565620005a3565b6001600160a01b0381166200059557604051631e4fbdf760e01b8152600060048201526024015b60405180910390fd5b620005a081620005d2565b50565b6000546001600160a01b03163314620003105760405163118cdaa760e01b81523360048201526024016200058c565b600080546001600160a01b038381166001600160a01b0319831681178455604051919092169283917f8be0079c531659141344cd1fd0a4f28419497f9722a3daafe3b4186f6b6457e09190a35050565b61325a806200096a83390190565b602080825282518282018190526000919060409081850190868401855b82811015620006ab57815180516001600160a01b03908116865287820151811688870152868201511686860152606080820151908601526080808201519086015260a0908101519085015260c090930192908501906001016200064d565b5091979650505050505050565b80356001600160a01b0381168114620006d057600080fd5b919050565b60008060408385031215620006e957600080fd5b82359150620006fb60208401620006b8565b90509250929050565b6000602082840312156200071757600080fd5b6200072282620006b8565b9392505050565b634e487b7160e01b600052604160045260246000fd5b600082601f8301126200075157600080fd5b813567ffffffffffffffff808211156200076f576200076f62000729565b604051601f8301601f19908116603f011681019082821181831017156200079a576200079a62000729565b81604052838152866020858801011115620007b457600080fd5b836020870160208301376000602085830101528094505050505092915050565b600080600080600060a08688031215620007ed57600080fd5b853567ffffffffffffffff808211156200080657600080fd5b6200081489838a016200073f565b965060208801359150808211156200082b57600080fd5b506200083a888289016200073f565b9450506200084b60408701620006b8565b92506200085b60608701620006b8565b949793965091946080013592915050565b6000602082840312156200087f57600080fd5b5035919050565b80820180821115620008a857634e487b7160e01b600052601160045260246000fd5b92915050565b6000815180845260005b81811015620008d657602081850181015186830182015201620008b8565b506000602082860101526020601f19601f83011685010191505092915050565b60c0815260006200090b60c0830189620008ae565b82810360208401526200091f8189620008ae565b6001600160a01b0397881660408501529587166060840152505091909316608082015260a0019190915292915050565b6000602082840312156200096257600080fd5b505191905056fe60806040523480156200001157600080fd5b506040516200325a3803806200325a833981016040819052620000349162000290565b33806200005b57604051631e4fbdf760e01b81526000600482015260240160405180910390fd5b620000668162000148565b5085856012306040516200007a9062000198565b62000089949392919062000368565b604051809103906000f080158015620000a6573d6000803e3d6000fd5b50600480546001600160a01b03199081166001600160a01b039384161790915560028054909116918416919091179055620000e442611c20620003b6565b600755620000f542610e10620003b6565b600855600180546001600160a01b039586166001600160a01b031991821681179092556003805495909616948116949094179094556000600c556005555060118054909116909117905550620003de9050565b600080546001600160a01b038381166001600160a01b0319831681178455604051919092169283917f8be0079c531659141344cd1fd0a4f28419497f9722a3daafe3b4186f6b6457e09190a35050565b6118f3806200196783390190565b634e487b7160e01b600052604160045260246000fd5b60005b83811015620001d9578181015183820152602001620001bf565b50506000910152565b600082601f830112620001f457600080fd5b81516001600160401b0380821115620002115762000211620001a6565b604051601f8301601f19908116603f011681019082821181831017156200023c576200023c620001a6565b816040528381528660208588010111156200025657600080fd5b62000269846020830160208901620001bc565b9695505050505050565b80516001600160a01b03811681146200028b57600080fd5b919050565b60008060008060008060c08789031215620002aa57600080fd5b86516001600160401b0380821115620002c257600080fd5b620002d08a838b01620001e2565b97506020890151915080821115620002e757600080fd5b50620002f689828a01620001e2565b955050620003076040880162000273565b9350620003176060880162000273565b9250620003276080880162000273565b915060a087015190509295509295509295565b6000815180845262000354816020860160208601620001bc565b601f01601f19169290920160200192915050565b6080815260006200037d60808301876200033a565b82810360208401526200039181876200033a565b60ff95909516604084015250506001600160a01b039190911660609091015292915050565b80820180821115620003d857634e487b7160e01b600052601160045260246000fd5b92915050565b61157980620003ee6000396000f3fe6080604052600436106101b75760003560e01c80637c2efcba116100ec578063e11932cf1161008a578063f4fb3df411610064578063f4fb3df414610471578063f5d0a7ba1461049e578063fc0c546a146104b4578063fc7e286d146104d457600080fd5b8063e11932cf1461041c578063e74740181461043c578063f2fde38b1461045157600080fd5b80638da5cb5b116100c65780638da5cb5b146103ca578063bc7a36d6146103e8578063d0e30db0146103fe578063dfbf53ae1461040657600080fd5b80637c2efcba1461037e5780637d8820971461039e5780637fb3e3d3146103b457600080fd5b80634ade6044116101595780636cc25db7116101335780636cc25db7146103065780636dcbf2a314610326578063715018a61461035357806374f47a7a1461036857600080fd5b80634ade6044146102b45780634e71d92d146102d957806361603d89146102f057600080fd5b80632240dbdb116101955780632240dbdb14610232578063335932fc1461024857806341b1c8e01461027e578063430bf08a1461029457600080fd5b806306661abd146101bc57806316f0115b146101e55780631f8cd1281461021d575b600080fd5b3480156101c857600080fd5b506101d2600c5481565b6040519081526020015b60405180910390f35b3480156101f157600080fd5b50600254610205906001600160a01b031681565b6040516001600160a01b0390911681526020016101dc565b34801561022957600080fd5b506101d2610501565b34801561023e57600080fd5b506101d2600e5481565b34801561025457600080fd5b506102056102633660046113fe565b600a602052600090815260409020546001600160a01b031681565b34801561028a57600080fd5b506101d260055481565b3480156102a057600080fd5b50600154610205906001600160a01b031681565b3480156102c057600080fd5b506102c9610a9e565b60405190151581526020016101dc565b3480156102e557600080fd5b506102ee610ae3565b005b3480156102fc57600080fd5b506101d260085481565b34801561031257600080fd5b50600454610205906001600160a01b031681565b34801561033257600080fd5b506101d2610341366004611417565b600b6020526000908152604090205481565b34801561035f57600080fd5b506102ee610de1565b34801561037457600080fd5b506101d260075481565b34801561038a57600080fd5b50601154610205906001600160a01b031681565b3480156103aa57600080fd5b506101d2600d5481565b3480156103c057600080fd5b506101d2600f5481565b3480156103d657600080fd5b506000546001600160a01b0316610205565b3480156103f457600080fd5b506101d260105481565b6101d2610df5565b34801561041257600080fd5b506101d260065481565b34801561042857600080fd5b506101d2610437366004611417565b610f24565b34801561044857600080fd5b506102ee610ff3565b34801561045d57600080fd5b506102ee61046c366004611417565b6112c8565b34801561047d57600080fd5b506101d261048c366004611417565b60126020526000908152604090205481565b3480156104aa57600080fd5b506101d260135481565b3480156104c057600080fd5b50600354610205906001600160a01b031681565b3480156104e057600080fd5b506101d26104ef366004611417565b60096020526000908152604090205481565b600061050b611303565b600854421161056d5760405162461bcd60e51b8152602060048201526024808201527f4465706f736974696f6e20706572696f64206973207374696c6c20676f696e67604482015263206f6e2160e01b60648201526084015b60405180910390fd5b60075442106105be5760405162461bcd60e51b815260206004820152601c60248201527f43616e6e6f74206465706f73697420746f207661756c74206e6f7721000000006044820152606401610564565b6000600d54116106105760405162461bcd60e51b815260206004820152601d60248201527f416d6f756e74206d7573742062652067726561746572207468616e20300000006044820152606401610564565b6011546040516370a0823160e01b81523060048201526000916001600160a01b0316906370a0823190602401602060405180830381865afa158015610659573d6000803e3d6000fd5b505050506040513d601f19601f8201168201806040525081019061067d9190611440565b600354601154600d5460405163095ea7b360e01b81526001600160a01b0392831660048201526024810191909152929350169063095ea7b3906044016020604051808303816000875af11580156106d8573d6000803e3d6000fd5b505050506040513d601f19601f820116820180604052508101906106fc9190611459565b50601154600d5460405163b6b55f2560e01b81526001600160a01b039092169163b6b55f25916107329160040190815260200190565b6020604051808303816000875af1158015610751573d6000803e3d6000fd5b505050506040513d601f19601f820116820180604052508101906107759190611440565b506011546040516370a0823160e01b81523060048201526000916001600160a01b0316906370a0823190602401602060405180830381865afa1580156107bf573d6000803e3d6000fd5b505050506040513d601f19601f820116820180604052508101906107e39190611440565b905060006107f18383611491565b9050600081116108435760405162461bcd60e51b815260206004820152601d60248201527f536861726573206d7573742062652067726561746572207468616e20300000006044820152606401610564565b600e819055600c5460005b818111610a9157600e54600d546000838152600a60209081526040808320546001600160a01b03168352600990915290205461088a91906114ba565b61089491906114ce565b6000828152600a6020908152604080832080546001600160a01b039081168552600b90935281842094909455600480549454831680855293829020549151630baf60eb60e31b81529081019390935260248301529190911690635d7b075890604401600060405180830381600087803b15801561091057600080fd5b505af1158015610924573d6000803e3d6000fd5b50506002546000848152600a60208181526040808420546001600160a01b03908116808652600b845282862054958a905293909252516360273e1f60e01b8152931694506360273e1f935061098d926004019182526001600160a01b0316602082015260400190565b600060405180830381600087803b1580156109a757600080fd5b505af11580156109bb573d6000803e3d6000fd5b50506002546000848152600a6020526040908190205490516329320a3760e21b81526001600160a01b0391821660048201529116925063a4c828dc9150602401602060405180830381865afa158015610a18573d6000803e3d6000fd5b505050506040513d601f19601f82011682018060405250810190610a3c9190611440565b6000828152600a6020908152604080832080546001600160a01b0390811685526012909352818420949094559254168152908120546013805491929091610a849084906114e5565b909155505060010161084e565b50600e5494505050505090565b6000600754421015610ac25760405162461bcd60e51b8152600401610564906114f8565b506006546000908152600a60205260409020546001600160a01b0316331490565b600754421015610b355760405162461bcd60e51b815260206004820181905260248201527f5769746864726177616c2074696d65206e6f742073746172746564207965742e6044820152606401610564565b33600090815260096020526040902054610b9c5760405162461bcd60e51b815260206004820152602260248201527f596f752068617665206e6f74206465706f736974656420616e7920616d6f756e6044820152613a1760f11b6064820152608401610564565b60048054336000818152600b6020526040908190205490516390596dd160e01b81529384019190915260248301526001600160a01b0316906390596dd190604401600060405180830381600087803b158015610bf757600080fd5b505af1158015610c0b573d6000803e3d6000fd5b505050506000610c1a33610f24565b600354336000818152600960205260409020549293506001600160a01b039091169163a9059cbb9190610c4d90856114e5565b6040516001600160e01b031960e085901b1681526001600160a01b03909216600483015260248201526044016020604051808303816000875af1158015610c98573d6000803e3d6000fd5b505050506040513d601f19601f82011682018060405250810190610cbc9190611459565b610cfa5760405162461bcd60e51b815260206004820152600f60248201526e151c985b9cd9995c8819985a5b1959608a1b6044820152606401610564565b80600d54610d089190611491565b600d55336000818152600960209081526040808320839055600b90915280822091909155600354905163a9059cbb60e01b81526004810192909252602482018390526001600160a01b03169063a9059cbb906044016020604051808303816000875af1158015610d7c573d6000803e3d6000fd5b505050506040513d601f19601f82011682018060405250810190610da09190611459565b610dde5760405162461bcd60e51b815260206004820152600f60248201526e151c985b9cd9995c8819985a5b1959608a1b6044820152606401610564565b50565b610de9611303565b610df36000611330565b565b60006008544210610e845760405162461bcd60e51b815260206004820152604d60248201527f536f72727920746865206465706f73697420646561646c696e6520697320706160448201527f737365642c20706c6561736520776169742074696c6c20746865206e6578742060648201526c3937bab7321039ba30b93a399760991b608482015260a401610564565b336000908152600960205260408120549003610ed457600c80546000908152600a6020526040812080546001600160a01b0319163317905581546001929190610ece9084906114e5565b90915550505b34600d6000828254610ee691906114e5565b90915550503360009081526009602052604081208054349290610f0a9084906114e5565b909155505033600090815260096020526040902054919050565b6000600754421015610f485760405162461bcd60e51b8152600401610564906114f8565b6006546000908152600a60205260409020546001600160a01b03808416911603610f8e576064600554601054610f7e91906114ce565b610f8891906114ba565b92915050565b600060646005546064610fa19190611491565b601054610fae91906114ce565b610fb891906114ba565b6001600160a01b03841660009081526012602052604090205460135491925090610fe290836114ba565b610fec91906114ce565b9392505050565b610ffb611303565b6000600e541161104d5760405162461bcd60e51b815260206004820152601d60248201527f416d6f756e74206d7573742062652067726561746572207468616e20300000006044820152606401610564565b6011546040516370a0823160e01b81523060048201526001600160a01b03909116906370a0823190602401602060405180830381865afa158015611095573d6000803e3d6000fd5b505050506040513d601f19601f820116820180604052508101906110b99190611440565b600e5411156111015760405162461bcd60e51b8152602060048201526014602482015273496e73756666696369656e742062616c616e636560601b6044820152606401610564565b6003546040516370a0823160e01b81523060048201526000916001600160a01b0316906370a0823190602401602060405180830381865afa15801561114a573d6000803e3d6000fd5b505050506040513d601f19601f8201168201806040525081019061116e9190611440565b601154600e54604051632e1a7d4d60e01b815260048101919091529192506001600160a01b031690632e1a7d4d906024016020604051808303816000875af11580156111be573d6000803e3d6000fd5b505050506040513d601f19601f820116820180604052508101906111e29190611440565b506000600e8190556003546040516370a0823160e01b81523060048201526001600160a01b03909116906370a0823190602401602060405180830381865afa158015611232573d6000803e3d6000fd5b505050506040513d601f19601f820116820180604052508101906112569190611440565b905081811161129b5760405162461bcd60e51b815260206004820152601160248201527015da5d1a191c985dd85b0819985a5b1959607a1b6044820152606401610564565b6112a58282611491565b600f819055600d546112b691611491565b6010556112c1611380565b6006555050565b6112d0611303565b6001600160a01b0381166112fa57604051631e4fbdf760e01b815260006004820152602401610564565b610dde81611330565b6000546001600160a01b03163314610df35760405163118cdaa760e01b8152336004820152602401610564565b600080546001600160a01b038381166001600160a01b0319831681178455604051919092169283917f8be0079c531659141344cd1fd0a4f28419497f9722a3daafe3b4186f6b6457e09190a35050565b600061138a611303565b6007544210156113ac5760405162461bcd60e51b8152600401610564906114f8565b600042446040516020016113ca929190918252602082015260400190565b6040516020818303038152906040528051906020012060001c9050600c54816113f3919061152f565b600681905591505090565b60006020828403121561141057600080fd5b5035919050565b60006020828403121561142957600080fd5b81356001600160a01b0381168114610fec57600080fd5b60006020828403121561145257600080fd5b5051919050565b60006020828403121561146b57600080fd5b81518015158114610fec57600080fd5b634e487b7160e01b600052601160045260246000fd5b81810381811115610f8857610f8861147b565b634e487b7160e01b600052601260045260246000fd5b6000826114c9576114c96114a4565b500490565b8082028115828204841417610f8857610f8861147b565b80820180821115610f8857610f8861147b565b60208082526017908201527f4e6f7420656e6f7567682074696d6520656c6170736564000000000000000000604082015260600190565b60008261153e5761153e6114a4565b50069056fea2646970667358221220f71f7f81ab7471fc315afa9915eef238c5106a9b6e056f8b013399ab934083bc64736f6c634300081400336101a06040523480156200001257600080fd5b50604051620018f3380380620018f38339810160408190526200003591620003df565b838383836040518060400160405280601c81526020017f506f6f6c546f67657468657220436f6e74726f6c6c6564546f6b656e0000000081525080604051806040016040528060018152602001603160f81b815250868681600390816200009d919062000512565b506004620000ac828262000512565b50620000be9150839050600562000296565b61012052620000cf81600662000296565b61014052815160208084019190912060e052815190820120610100524660a0526200015d60e05161010051604080517f8b73c3c69bb8fe3d512ecc4cf759cc79239f7b179b0ffacaa9a75d522b39400f60208201529081019290925260608201524660808201523060a082015260009060c00160405160208183030381529060405280519060200120905090565b60805250503060c052506001600160a01b038116620001d75760405162461bcd60e51b815260206004820152602b60248201527f436f6e74726f6c6c6564546f6b656e2f636f6e74726f6c6c65722d6e6f742d7a60448201526a65726f2d6164647265737360a81b60648201526084015b60405180910390fd5b6001600160a01b0381166101605260ff8216620002375760405162461bcd60e51b815260206004820181905260248201527f436f6e74726f6c6c6564546f6b656e2f646563696d616c732d67742d7a65726f6044820152606401620001ce565b60ff8216610180526040516001600160a01b038216907fde72fc29218361f33503847e6f32be813f9ec92fc7c772bb59e46675c890fd0e9062000280908790879087906200060c565b60405180910390a250505050505050506200068a565b6000602083511015620002b657620002ae83620002cf565b9050620002c9565b81620002c3848262000512565b5060ff90505b92915050565b600080829050601f81511115620002fd578260405163305a27a960e01b8152600401620001ce919062000649565b80516200030a8262000665565b179392505050565b634e487b7160e01b600052604160045260246000fd5b60005b83811015620003455781810151838201526020016200032b565b50506000910152565b600082601f8301126200036057600080fd5b81516001600160401b03808211156200037d576200037d62000312565b604051601f8301601f19908116603f01168101908282118183101715620003a857620003a862000312565b81604052838152866020858801011115620003c257600080fd5b620003d584602083016020890162000328565b9695505050505050565b60008060008060808587031215620003f657600080fd5b84516001600160401b03808211156200040e57600080fd5b6200041c888389016200034e565b955060208701519150808211156200043357600080fd5b5062000442878288016200034e565b935050604085015160ff811681146200045a57600080fd5b60608601519092506001600160a01b03811681146200047857600080fd5b939692955090935050565b600181811c908216806200049857607f821691505b602082108103620004b957634e487b7160e01b600052602260045260246000fd5b50919050565b601f8211156200050d57600081815260208120601f850160051c81016020861015620004e85750805b601f850160051c820191505b818110156200050957828155600101620004f4565b5050505b505050565b81516001600160401b038111156200052e576200052e62000312565b62000546816200053f845462000483565b84620004bf565b602080601f8311600181146200057e5760008415620005655750858301515b600019600386901b1c1916600185901b17855562000509565b600085815260208120601f198616915b82811015620005af578886015182559484019460019091019084016200058e565b5085821015620005ce5787850151600019600388901b60f8161c191681555b5050505050600190811b01905550565b60008151808452620005f881602086016020860162000328565b601f01601f19169290920160200192915050565b606081526000620006216060830186620005de565b8281036020840152620006358186620005de565b91505060ff83166040830152949350505050565b6020815260006200065e6020830184620005de565b9392505050565b80516020808301519190811015620004b95760001960209190910360031b1b16919050565b60805160a05160c05160e05161010051610120516101405161016051610180516111e3620007106000396000610188015260008181610292015281816103df0152818161043e0152610531015260006109970152600061096a015260006108a60152600061087e015260006107d9015260006108030152600061082d01526111e36000f3fe608060405234801561001057600080fd5b50600436106101165760003560e01c80637ecebe00116100a2578063a9059cbb11610071578063a9059cbb14610254578063d505accf14610267578063dd62ed3e1461027a578063f77c47911461028d578063f8b2cb4f146102cc57600080fd5b80637ecebe001461020b57806384b0196e1461021e57806390596dd11461023957806395d89b411461024c57600080fd5b8063313ce567116100e9578063313ce567146101815780633644e515146101b25780635d7b0758146101ba578063631b5dfb146101cf57806370a08231146101e257600080fd5b806306fdde031461011b578063095ea7b31461013957806318160ddd1461015c57806323b872dd1461016e575b600080fd5b6101236102f5565b6040516101309190610ef7565b60405180910390f35b61014c610147366004610f2d565b610387565b6040519015158152602001610130565b6002545b604051908152602001610130565b61014c61017c366004610f57565b6103a1565b60405160ff7f0000000000000000000000000000000000000000000000000000000000000000168152602001610130565b6101606103c5565b6101cd6101c8366004610f2d565b6103d4565b005b6101cd6101dd366004610f57565b610433565b6101606101f0366004610f93565b6001600160a01b031660009081526020819052604090205490565b610160610219366004610f93565b6104c2565b6102266104e0565b6040516101309796959493929190610fae565b6101cd610247366004610f2d565b610526565b610123610578565b61014c610262366004610f2d565b610587565b6101cd610275366004611044565b610595565b6101606102883660046110b7565b6106cf565b6102b47f000000000000000000000000000000000000000000000000000000000000000081565b6040516001600160a01b039091168152602001610130565b6101606102da366004610f93565b6001600160a01b031660009081526008602052604090205490565b606060038054610304906110ea565b80601f0160208091040260200160405190810160405280929190818152602001828054610330906110ea565b801561037d5780601f106103525761010080835404028352916020019161037d565b820191906000526020600020905b81548152906001019060200180831161036057829003601f168201915b5050505050905090565b6000336103958185856106fa565b60019150505b92915050565b6000336103af858285610707565b6103ba85858561076d565b506001949350505050565b60006103cf6107cc565b905090565b336001600160a01b037f000000000000000000000000000000000000000000000000000000000000000016146104255760405162461bcd60e51b815260040161041c90611124565b60405180910390fd5b61042f82826108f7565b5050565b336001600160a01b037f0000000000000000000000000000000000000000000000000000000000000000161461047b5760405162461bcd60e51b815260040161041c90611124565b816001600160a01b0316836001600160a01b0316146104b3576104b38284836104a486886106cf565b6104ae9190611171565b6106fa565b6104bd828261092d565b505050565b6001600160a01b03811660009081526007602052604081205461039b565b6000606080600080600060606104f4610963565b6104fc610990565b60408051600080825260208201909252600f60f81b9b939a50919850469750309650945092509050565b336001600160a01b037f0000000000000000000000000000000000000000000000000000000000000000161461056e5760405162461bcd60e51b815260040161041c90611124565b61042f828261092d565b606060048054610304906110ea565b60003361039581858561076d565b834211156105b95760405163313c898160e11b81526004810185905260240161041c565b60007f6e71edae12b1b97f4d1f60370fef10105fa2faae0126114a169c64845d6126c98888886106068c6001600160a01b0316600090815260076020526040902080546001810190915590565b6040805160208101969096526001600160a01b0394851690860152929091166060840152608083015260a082015260c0810186905260e0016040516020818303038152906040528051906020012090506000610661826109bd565b90506000610671828787876109ea565b9050896001600160a01b0316816001600160a01b0316146106b8576040516325c0072360e11b81526001600160a01b0380831660048301528b16602482015260440161041c565b6106c38a8a8a6106fa565b50505050505050505050565b6001600160a01b03918216600090815260016020908152604080832093909416825291909152205490565b6104bd8383836001610a18565b600061071384846106cf565b90506000198114610767578181101561075857604051637dc7a0d960e11b81526001600160a01b0384166004820152602481018290526044810183905260640161041c565b61076784848484036000610a18565b50505050565b6001600160a01b03831661079757604051634b637e8f60e11b81526000600482015260240161041c565b6001600160a01b0382166107c15760405163ec442f0560e01b81526000600482015260240161041c565b6104bd838383610aed565b6000306001600160a01b037f00000000000000000000000000000000000000000000000000000000000000001614801561082557507f000000000000000000000000000000000000000000000000000000000000000046145b1561084f57507f000000000000000000000000000000000000000000000000000000000000000090565b6103cf604080517f8b73c3c69bb8fe3d512ecc4cf759cc79239f7b179b0ffacaa9a75d522b39400f60208201527f0000000000000000000000000000000000000000000000000000000000000000918101919091527f000000000000000000000000000000000000000000000000000000000000000060608201524660808201523060a082015260009060c00160405160208183030381529060405280519060200120905090565b6001600160a01b0382166109215760405163ec442f0560e01b81526000600482015260240161041c565b61042f60008383610aed565b6001600160a01b03821661095757604051634b637e8f60e11b81526000600482015260240161041c565b61042f82600083610aed565b60606103cf7f00000000000000000000000000000000000000000000000000000000000000006005610c17565b60606103cf7f00000000000000000000000000000000000000000000000000000000000000006006610c17565b600061039b6109ca6107cc565b8360405161190160f01b8152600281019290925260228201526042902090565b6000806000806109fc88888888610cc2565b925092509250610a0c8282610d91565b50909695505050505050565b6001600160a01b038416610a425760405163e602df0560e01b81526000600482015260240161041c565b6001600160a01b038316610a6c57604051634a1406b160e11b81526000600482015260240161041c565b6001600160a01b038085166000908152600160209081526040808320938716835292905220829055801561076757826001600160a01b0316846001600160a01b03167f8c5be1e5ebec7d5bd14f71427d1e84f3dd0314c0f7b2291e5b200ac8c7c3b92584604051610adf91815260200190565b60405180910390a350505050565b6001600160a01b038316610b18578060026000828254610b0d9190611184565b90915550610b8a9050565b6001600160a01b03831660009081526020819052604090205481811015610b6b5760405163391434e360e21b81526001600160a01b0385166004820152602481018290526044810183905260640161041c565b6001600160a01b03841660009081526020819052604090209082900390555b6001600160a01b038216610ba657600280548290039055610bc5565b6001600160a01b03821660009081526020819052604090208054820190555b816001600160a01b0316836001600160a01b03167fddf252ad1be2c89b69c2b068fc378daa952ba7f163c4a11628f55a4df523b3ef83604051610c0a91815260200190565b60405180910390a3505050565b606060ff8314610c3157610c2a83610e4a565b905061039b565b818054610c3d906110ea565b80601f0160208091040260200160405190810160405280929190818152602001828054610c69906110ea565b8015610cb65780601f10610c8b57610100808354040283529160200191610cb6565b820191906000526020600020905b815481529060010190602001808311610c9957829003601f168201915b5050505050905061039b565b600080807f7fffffffffffffffffffffffffffffff5d576e7357a4501ddfe92f46681b20a0841115610cfd5750600091506003905082610d87565b604080516000808252602082018084528a905260ff891692820192909252606081018790526080810186905260019060a0016020604051602081039080840390855afa158015610d51573d6000803e3d6000fd5b5050604051601f1901519150506001600160a01b038116610d7d57506000925060019150829050610d87565b9250600091508190505b9450945094915050565b6000826003811115610da557610da5611197565b03610dae575050565b6001826003811115610dc257610dc2611197565b03610de05760405163f645eedf60e01b815260040160405180910390fd5b6002826003811115610df457610df4611197565b03610e155760405163fce698f760e01b81526004810182905260240161041c565b6003826003811115610e2957610e29611197565b0361042f576040516335e2f38360e21b81526004810182905260240161041c565b60606000610e5783610e89565b604080516020808252818301909252919250600091906020820181803683375050509182525060208101929092525090565b600060ff8216601f81111561039b57604051632cd44ac360e21b815260040160405180910390fd5b6000815180845260005b81811015610ed757602081850181015186830182015201610ebb565b506000602082860101526020601f19601f83011685010191505092915050565b602081526000610f0a6020830184610eb1565b9392505050565b80356001600160a01b0381168114610f2857600080fd5b919050565b60008060408385031215610f4057600080fd5b610f4983610f11565b946020939093013593505050565b600080600060608486031215610f6c57600080fd5b610f7584610f11565b9250610f8360208501610f11565b9150604084013590509250925092565b600060208284031215610fa557600080fd5b610f0a82610f11565b60ff60f81b881681526000602060e081840152610fce60e084018a610eb1565b8381036040850152610fe0818a610eb1565b606085018990526001600160a01b038816608086015260a0850187905284810360c0860152855180825283870192509083019060005b8181101561103257835183529284019291840191600101611016565b50909c9b505050505050505050505050565b600080600080600080600060e0888a03121561105f57600080fd5b61106888610f11565b965061107660208901610f11565b95506040880135945060608801359350608088013560ff8116811461109a57600080fd5b9699959850939692959460a0840135945060c09093013592915050565b600080604083850312156110ca57600080fd5b6110d383610f11565b91506110e160208401610f11565b90509250929050565b600181811c908216806110fe57607f821691505b60208210810361111e57634e487b7160e01b600052602260045260246000fd5b50919050565b6020808252601f908201527f436f6e74726f6c6c6564546f6b656e2f6f6e6c792d636f6e74726f6c6c657200604082015260600190565b634e487b7160e01b600052601160045260246000fd5b8181038181111561039b5761039b61115b565b8082018082111561039b5761039b61115b565b634e487b7160e01b600052602160045260246000fdfea26469706673582212206258d6f5e3c122f94cfab720422913068ab0511ab8a1ae9750e6893040a6b7b264736f6c63430008140033a2646970667358221220ef66ef8a013b2d73ecc7654e1d841170b4658f1e3882be9a7f55258d57e3ad2064736f6c63430008140033",
  "linkReferences": {},
  "deployedLinkReferences": {}
}