{
  "_format": "hh-sol-artifact-1",
  "contractName": "PrizePool",
  "sourceName": "contracts/PrizePool.sol",
  "abi": [
    {
      "inputs": [
        {
          "internalType": "string",
          "name": "name",
          "type": "string"
        },
        {
          "internalType": "string",
          "name": "symbol",
          "type": "string"
        },
        {
          "internalType": "address",
          "name": "_yieldProtocolAddress",
          "type": "address"
        },
        {
          "internalType": "address",
          "name": "_token",
          "type": "address"
        },
        {
          "internalType": "address",
          "name": "_poolManagerAddress",
          "type": "address"
        },
        {
          "internalType": "uint256",
          "name": "_drawDeadline",
          "type": "uint256"
        },
        {
          "internalType": "uint256",
          "name": "_depositDeadline",
          "type": "uint256"
        },
        {
          "internalType": "address",
          "name": "_owner",
          "type": "address"
        }
      ],
      "stateMutability": "nonpayable",
      "type": "constructor"
    },
    {
      "inputs": [
        {
          "internalType": "address",
          "name": "owner",
          "type": "address"
        }
      ],
      "name": "OwnableInvalidOwner",
      "type": "error"
    },
    {
      "inputs": [
        {
          "internalType": "address",
          "name": "account",
          "type": "address"
        }
      ],
      "name": "OwnableUnauthorizedAccount",
      "type": "error"
    },
    {
      "anonymous": false,
      "inputs": [
        {
          "indexed": true,
          "internalType": "address",
          "name": "user",
          "type": "address"
        },
        {
          "indexed": false,
          "internalType": "uint256",
          "name": "amount",
          "type": "uint256"
        }
      ],
      "name": "Claimed",
      "type": "event"
    },
    {
      "anonymous": false,
      "inputs": [
        {
          "indexed": false,
          "internalType": "uint256",
          "name": "oldDepositDeadline",
          "type": "uint256"
        },
        {
          "indexed": false,
          "internalType": "uint256",
          "name": "newDepositDeadline",
          "type": "uint256"
        }
      ],
      "name": "DepositDeadlineUpdated",
      "type": "event"
    },
    {
      "anonymous": false,
      "inputs": [
        {
          "indexed": true,
          "internalType": "address",
          "name": "user",
          "type": "address"
        },
        {
          "indexed": false,
          "internalType": "uint256",
          "name": "amount",
          "type": "uint256"
        }
      ],
      "name": "Deposited",
      "type": "event"
    },
    {
      "anonymous": false,
      "inputs": [
        {
          "indexed": false,
          "internalType": "uint256",
          "name": "oldDrawTime",
          "type": "uint256"
        },
        {
          "indexed": false,
          "internalType": "uint256",
          "name": "newDrawTime",
          "type": "uint256"
        }
      ],
      "name": "DrawTimeUpdated",
      "type": "event"
    },
    {
      "anonymous": false,
      "inputs": [
        {
          "indexed": true,
          "internalType": "address",
          "name": "previousOwner",
          "type": "address"
        },
        {
          "indexed": true,
          "internalType": "address",
          "name": "newOwner",
          "type": "address"
        }
      ],
      "name": "OwnershipTransferred",
      "type": "event"
    },
    {
      "anonymous": false,
      "inputs": [
        {
          "indexed": true,
          "internalType": "address",
          "name": "winner",
          "type": "address"
        }
      ],
      "name": "WinnerDrawn",
      "type": "event"
    },
    {
      "inputs": [],
      "name": "count",
      "outputs": [
        {
          "internalType": "uint256",
          "name": "",
          "type": "uint256"
        }
      ],
      "stateMutability": "view",
      "type": "function"
    },
    {
      "inputs": [],
      "name": "deposit",
      "outputs": [
        {
          "internalType": "uint256",
          "name": "",
          "type": "uint256"
        }
      ],
      "stateMutability": "payable",
      "type": "function"
    },
    {
      "inputs": [],
      "name": "depositDeadline",
      "outputs": [
        {
          "internalType": "uint256",
          "name": "",
          "type": "uint256"
        }
      ],
      "stateMutability": "view",
      "type": "function"
    },
    {
      "inputs": [
        {
          "internalType": "address",
          "name": "",
          "type": "address"
        }
      ],
      "name": "depositTimes",
      "outputs": [
        {
          "internalType": "uint256",
          "name": "",
          "type": "uint256"
        }
      ],
      "stateMutability": "view",
      "type": "function"
    },
    {
      "inputs": [
        {
          "internalType": "address",
          "name": "",
          "type": "address"
        }
      ],
      "name": "deposits",
      "outputs": [
        {
          "internalType": "uint256",
          "name": "",
          "type": "uint256"
        }
      ],
      "stateMutability": "view",
      "type": "function"
    },
    {
      "inputs": [],
      "name": "drawTime",
      "outputs": [
        {
          "internalType": "uint256",
          "name": "",
          "type": "uint256"
        }
      ],
      "stateMutability": "view",
      "type": "function"
    },
    {
      "inputs": [],
      "name": "drawWinner",
      "outputs": [
        {
          "internalType": "address",
          "name": "",
          "type": "address"
        }
      ],
      "stateMutability": "nonpayable",
      "type": "function"
    },
    {
      "inputs": [
        {
          "internalType": "address",
          "name": "user",
          "type": "address"
        }
      ],
      "name": "getWinRate",
      "outputs": [
        {
          "internalType": "uint256",
          "name": "",
          "type": "uint256"
        }
      ],
      "stateMutability": "view",
      "type": "function"
    },
    {
      "inputs": [],
      "name": "getWinner",
      "outputs": [
        {
          "internalType": "address",
          "name": "",
          "type": "address"
        }
      ],
      "stateMutability": "view",
      "type": "function"
    },
    {
      "inputs": [
        {
          "internalType": "uint256",
          "name": "",
          "type": "uint256"
        }
      ],
      "name": "index",
      "outputs": [
        {
          "internalType": "address",
          "name": "",
          "type": "address"
        }
      ],
      "stateMutability": "view",
      "type": "function"
    },
    {
      "inputs": [
        {
          "internalType": "address",
          "name": "account",
          "type": "address"
        }
      ],
      "name": "isWinner",
      "outputs": [
        {
          "internalType": "bool",
          "name": "",
          "type": "bool"
        }
      ],
      "stateMutability": "view",
      "type": "function"
    },
    {
      "inputs": [],
      "name": "owner",
      "outputs": [
        {
          "internalType": "address",
          "name": "",
          "type": "address"
        }
      ],
      "stateMutability": "view",
      "type": "function"
    },
    {
      "inputs": [],
      "name": "prizePoolManager",
      "outputs": [
        {
          "internalType": "contract IPrizePoolManager",
          "name": "",
          "type": "address"
        }
      ],
      "stateMutability": "view",
      "type": "function"
    },
    {
      "inputs": [],
      "name": "renounceOwnership",
      "outputs": [],
      "stateMutability": "nonpayable",
      "type": "function"
    },
    {
      "inputs": [],
      "name": "token",
      "outputs": [
        {
          "internalType": "address",
          "name": "",
          "type": "address"
        }
      ],
      "stateMutability": "view",
      "type": "function"
    },
    {
      "inputs": [],
      "name": "totalDeposits",
      "outputs": [
        {
          "internalType": "uint256",
          "name": "",
          "type": "uint256"
        }
      ],
      "stateMutability": "view",
      "type": "function"
    },
    {
      "inputs": [],
      "name": "totalInterest",
      "outputs": [
        {
          "internalType": "uint256",
          "name": "",
          "type": "uint256"
        }
      ],
      "stateMutability": "view",
      "type": "function"
    },
    {
      "inputs": [],
      "name": "totalWeightedTickets",
      "outputs": [
        {
          "internalType": "uint256",
          "name": "",
          "type": "uint256"
        }
      ],
      "stateMutability": "view",
      "type": "function"
    },
    {
      "inputs": [
        {
          "internalType": "address",
          "name": "newOwner",
          "type": "address"
        }
      ],
      "name": "transferOwnership",
      "outputs": [],
      "stateMutability": "nonpayable",
      "type": "function"
    },
    {
      "inputs": [
        {
          "internalType": "uint256",
          "name": "_newDepositDeadline",
          "type": "uint256"
        }
      ],
      "name": "updateDepositDeadline",
      "outputs": [],
      "stateMutability": "nonpayable",
      "type": "function"
    },
    {
      "inputs": [
        {
          "internalType": "uint256",
          "name": "_newDrawTime",
          "type": "uint256"
        }
      ],
      "name": "updateDrawTime",
      "outputs": [],
      "stateMutability": "nonpayable",
      "type": "function"
    },
    {
      "inputs": [],
      "name": "v",
      "outputs": [
        {
          "internalType": "contract VaultAPI",
          "name": "",
          "type": "address"
        }
      ],
      "stateMutability": "view",
      "type": "function"
    },
    {
      "inputs": [
        {
          "internalType": "address",
          "name": "",
          "type": "address"
        }
      ],
      "name": "weightedTickets",
      "outputs": [
        {
          "internalType": "uint256",
          "name": "",
          "type": "uint256"
        }
      ],
      "stateMutability": "view",
      "type": "function"
    },
    {
      "inputs": [],
      "name": "winner",
      "outputs": [
        {
          "internalType": "address",
          "name": "",
          "type": "address"
        }
      ],
      "stateMutability": "view",
      "type": "function"
    },
    {
      "inputs": [],
      "name": "withdraw",
      "outputs": [],
      "stateMutability": "nonpayable",
      "type": "function"
    },
    {
      "inputs": [],
      "name": "yieldProtocolAddress",
      "outputs": [
        {
          "internalType": "address",
          "name": "",
          "type": "address"
        }
      ],
      "stateMutability": "view",
      "type": "function"
    }
  ],
  "bytecode": "0x60806040523480156200001157600080fd5b50604051620012843803806200128483398101604081905262000034916200022b565b806001600160a01b0381166200006457604051631e4fbdf760e01b81526000600482015260240160405180910390fd5b6200006f81620000f9565b50600280546001600160a01b0319166001600160a01b038616179055620000978342620002f3565b600555620000a68242620002f3565b6006555050600180546001600160a01b039586166001600160a01b0319918216811790925560038054959096169481169490941790945550506000600955600c80549091169091179055506200031b9050565b600080546001600160a01b038381166001600160a01b0319831681178455604051919092169283917f8be0079c531659141344cd1fd0a4f28419497f9722a3daafe3b4186f6b6457e09190a35050565b634e487b7160e01b600052604160045260246000fd5b600082601f8301126200017157600080fd5b81516001600160401b03808211156200018e576200018e62000149565b604051601f8301601f19908116603f01168101908282118183101715620001b957620001b962000149565b81604052838152602092508683858801011115620001d657600080fd5b600091505b83821015620001fa5785820183015181830184015290820190620001db565b600093810190920192909252949350505050565b80516001600160a01b03811681146200022657600080fd5b919050565b600080600080600080600080610100898b0312156200024957600080fd5b88516001600160401b03808211156200026157600080fd5b6200026f8c838d016200015f565b995060208b01519150808211156200028657600080fd5b50620002958b828c016200015f565b975050620002a660408a016200020e565b9550620002b660608a016200020e565b9450620002c660808a016200020e565b935060a0890151925060c08901519150620002e460e08a016200020e565b90509295985092959890939650565b808201808211156200031557634e487b7160e01b600052601160045260246000fd5b92915050565b610f59806200032b6000396000f3fe6080604052600436106101815760003560e01c80638e7ea5b2116100d1578063bc7a36d61161008a578063dfbf53ae11610064578063dfbf53ae14610449578063f2fde38b14610469578063fc0c546a14610489578063fc7e286d146104a957600080fd5b8063bc7a36d61461040b578063d0e30db014610421578063d9cc0f3e1461042957600080fd5b80638e7ea5b21461032c578063914a1e761461034a5780639d9ca28d1461036a578063ab0fcd15146103a9578063adc080d9146103c9578063b2185bb1146103f657600080fd5b80633ccfd60b1161013e578063715018a611610118578063715018a6146102c35780637c2efcba146102d85780637d882097146102f85780638da5cb5b1461030e57600080fd5b80633ccfd60b1461026957806340de75041461028057806361603d89146102ad57600080fd5b806306661abd146101865780631adc3213146101af57806324ac60a7146101e757806325a0949f146101fd578063335932fc1461021d57806338c7c86c14610253575b600080fd5b34801561019257600080fd5b5061019c60095481565b6040519081526020015b60405180910390f35b3480156101bb57600080fd5b506001546101cf906001600160a01b031681565b6040516001600160a01b0390911681526020016101a6565b3480156101f357600080fd5b5061019c60055481565b34801561020957600080fd5b506002546101cf906001600160a01b031681565b34801561022957600080fd5b506101cf610238366004610e30565b6008602052600090815260409020546001600160a01b031681565b34801561025f57600080fd5b5061019c600f5481565b34801561027557600080fd5b5061027e6104d6565b005b34801561028c57600080fd5b5061019c61029b366004610e49565b600e6020526000908152604090205481565b3480156102b957600080fd5b5061019c60065481565b3480156102cf57600080fd5b5061027e6106f4565b3480156102e457600080fd5b50600c546101cf906001600160a01b031681565b34801561030457600080fd5b5061019c600a5481565b34801561031a57600080fd5b506000546001600160a01b03166101cf565b34801561033857600080fd5b506004546001600160a01b03166101cf565b34801561035657600080fd5b5061019c610365366004610e49565b610708565b34801561037657600080fd5b50610399610385366004610e49565b6004546001600160a01b0390811691161490565b60405190151581526020016101a6565b3480156103b557600080fd5b5061027e6103c4366004610e30565b610755565b3480156103d557600080fd5b5061019c6103e4366004610e49565b600d6020526000908152604090205481565b34801561040257600080fd5b506101cf610805565b34801561041757600080fd5b5061019c600b5481565b61019c610a64565b34801561043557600080fd5b5061027e610444366004610e30565b610c84565b34801561045557600080fd5b506004546101cf906001600160a01b031681565b34801561047557600080fd5b5061027e610484366004610e49565b610d75565b34801561049557600080fd5b506003546101cf906001600160a01b031681565b3480156104b557600080fd5b5061019c6104c4366004610e49565b60076020526000908152604090205481565b60055442101561052d5760405162461bcd60e51b815260206004820181905260248201527f5769746864726177616c2074696d65206e6f742073746172746564207965742e60448201526064015b60405180910390fd5b6004546001600160a01b031661057c5760405162461bcd60e51b815260206004820152601460248201527315da5b9b995c881b9bdd08191c985ddb881e595d60621b6044820152606401610524565b33600090815260076020526040902054806105e45760405162461bcd60e51b815260206004820152602260248201527f596f752068617665206e6f74206465706f736974656420616e7920616d6f756e6044820152613a1760f11b6064820152608401610524565b80600a60008282546105f69190610e8f565b90915550503360008181526007602052604081205560045482916001600160a01b039091160361063057600b5461062d9082610ea2565b90505b604051600090339083908381818185875af1925050503d8060008114610672576040519150601f19603f3d011682016040523d82523d6000602084013e610677565b606091505b50509050806106ba5760405162461bcd60e51b815260206004820152600f60248201526e15da5d1a191c985dc819985a5b1959608a1b6044820152606401610524565b60405182815233907fd8138f8a3f377c5259ca548e70e4c2de94f129f5a11036a15b69513cba2b426a9060200160405180910390a2505050565b6106fc610db3565b6107066000610de0565b565b6000600f5460000361071c57506000919050565b600f546001600160a01b0383166000908152600e602052604090205461074590620f4240610eb5565b61074f9190610ee2565b92915050565b61075d610db3565b4281116107bf5760405162461bcd60e51b815260206004820152602a60248201527f4e6577206465706f73697420646561646c696e65206d75737420626520696e206044820152697468652066757475726560b01b6064820152608401610524565b600680549082905560408051828152602081018490527ff508677f019f86be940e6e63b7766aef06793e2f69da1ad7ada1f08ec86aaa6991015b60405180910390a15050565b600061080f610db3565b6006544210156108615760405162461bcd60e51b815260206004820152601b60248201527f4e6f74207965742074696d6520746f20647261772077696e6e657200000000006044820152606401610524565b6004546001600160a01b0316156108b15760405162461bcd60e51b81526020600482015260146024820152732bb4b73732b91030b63932b0b23c90323930bbb760611b6044820152606401610524565b6000600f54116108f95760405162461bcd60e51b81526020600482015260136024820152724e6f207765696768746564207469636b65747360681b6044820152606401610524565b6000600f54424460405160200161091a929190918252602082015260400190565b6040516020818303038152906040528051906020012060001c61093d9190610ef6565b90506000805b6009548110156109c0576000818152600860209081526040808320546001600160a01b0316808452600e9092529091205461097e9084610ea2565b9250828410156109ad57600480546001600160a01b0319166001600160a01b03929092169190911790556109c0565b50806109b881610f0a565b915050610943565b506004546001600160a01b0316610a195760405162461bcd60e51b815260206004820152601760248201527f4661696c656420746f2073656c6563742077696e6e65720000000000000000006044820152606401610524565b6004546040516001600160a01b03909116907fb1899e5911a12372a7fa329d3051f8358e8f5156f66bcf69707ea096419681b790600090a250506004546001600160a01b0316905090565b60006006544210610ab75760405162461bcd60e51b815260206004820152601b60248201527f4465706f73697420646561646c696e65206861732070617373656400000000006044820152606401610524565b336000908152600760205260408120549003610b195760098054600090815260086020526040812080546001600160a01b0319163317905581546001929190610b01908490610ea2565b9091555050336000908152600d602052604090204290555b34600a6000828254610b2b9190610ea2565b90915550503360009081526007602052604081208054349290610b4f908490610ea2565b9091555050336000908152600d6020526040812054600654610b719190610e8f565b336000908152600e6020526040812054600f80549394509092909190610b98908490610e8f565b90915550503360009081526007602052604090205415801590610bbb5750600081115b15610c015733600090815260076020526040812054610bdf90633b9aca0090610ee2565b9050610beb8282610eb5565b336000908152600e602052604090205550610c12565b336000908152600e60205260408120555b336000908152600e6020526040812054600f805491929091610c35908490610ea2565b909155505060405134815233907f2da466a7b24304f47e87fa2e1e5a81b9831ce54fec19055ce277ca2f39ba42c49060200160405180910390a250503360009081526007602052604090205490565b610c8c610db3565b6004546001600160a01b031615610cdc5760405162461bcd60e51b81526020600482015260146024820152732bb4b73732b91030b63932b0b23c90323930bbb760611b6044820152606401610524565b428111610d375760405162461bcd60e51b815260206004820152602360248201527f4e657720647261772074696d65206d75737420626520696e207468652066757460448201526275726560e81b6064820152608401610524565b600580549082905560408051828152602081018490527f7b3f0a944cc1299d4c8c7a4322d762b1a514134b8d254bb8fe15b7559c1993f191016107f9565b610d7d610db3565b6001600160a01b038116610da757604051631e4fbdf760e01b815260006004820152602401610524565b610db081610de0565b50565b6000546001600160a01b031633146107065760405163118cdaa760e01b8152336004820152602401610524565b600080546001600160a01b038381166001600160a01b0319831681178455604051919092169283917f8be0079c531659141344cd1fd0a4f28419497f9722a3daafe3b4186f6b6457e09190a35050565b600060208284031215610e4257600080fd5b5035919050565b600060208284031215610e5b57600080fd5b81356001600160a01b0381168114610e7257600080fd5b9392505050565b634e487b7160e01b600052601160045260246000fd5b8181038181111561074f5761074f610e79565b8082018082111561074f5761074f610e79565b808202811582820484141761074f5761074f610e79565b634e487b7160e01b600052601260045260246000fd5b600082610ef157610ef1610ecc565b500490565b600082610f0557610f05610ecc565b500690565b600060018201610f1c57610f1c610e79565b506001019056fea2646970667358221220ba8ba9b15e705eba78cb594e153291e411e0cd262a053dfaec365ff7ac3de98e64736f6c63430008140033",
  "linkReferences": {},
  "deployedLinkReferences": {}
}