{
  "_format": "hh-sol-artifact-1",
  "contractName": "PrizePoolManager",
  "sourceName": "contracts/PrizePoolManager.sol",
  "abi": [
    {
      "inputs": [],
      "stateMutability": "nonpayable",
      "type": "constructor"
    },
    {
      "inputs": [
        {
          "internalType": "address",
          "name": "owner",
          "type": "address"
        }
      ],
      "name": "OwnableInvalidOwner",
      "type": "error"
    },
    {
      "inputs": [
        {
          "internalType": "address",
          "name": "account",
          "type": "address"
        }
      ],
      "name": "OwnableUnauthorizedAccount",
      "type": "error"
    },
    {
      "anonymous": false,
      "inputs": [
        {
          "indexed": true,
          "internalType": "address",
          "name": "previousOwner",
          "type": "address"
        },
        {
          "indexed": true,
          "internalType": "address",
          "name": "newOwner",
          "type": "address"
        }
      ],
      "name": "OwnershipTransferred",
      "type": "event"
    },
    {
      "anonymous": false,
      "inputs": [
        {
          "indexed": true,
          "internalType": "address",
          "name": "prizePoolAddress",
          "type": "address"
        },
        {
          "indexed": true,
          "internalType": "address",
          "name": "tokenAddress",
          "type": "address"
        },
        {
          "indexed": true,
          "internalType": "address",
          "name": "yieldProtocolAddress",
          "type": "address"
        },
        {
          "indexed": false,
          "internalType": "string",
          "name": "name",
          "type": "string"
        },
        {
          "indexed": false,
          "internalType": "string",
          "name": "symbol",
          "type": "string"
        },
        {
          "indexed": false,
          "internalType": "uint256",
          "name": "depositionDeadline",
          "type": "uint256"
        },
        {
          "indexed": false,
          "internalType": "uint256",
          "name": "withdrawalTime",
          "type": "uint256"
        }
      ],
      "name": "PrizePoolCreated",
      "type": "event"
    },
    {
      "inputs": [
        {
          "internalType": "string",
          "name": "name",
          "type": "string"
        },
        {
          "internalType": "string",
          "name": "symbol",
          "type": "string"
        },
        {
          "internalType": "address",
          "name": "yieldProtocolAddress",
          "type": "address"
        },
        {
          "internalType": "address",
          "name": "token",
          "type": "address"
        },
        {
          "internalType": "uint256",
          "name": "drawTime",
          "type": "uint256"
        },
        {
          "internalType": "uint256",
          "name": "depositDeadline",
          "type": "uint256"
        }
      ],
      "name": "createPrizePool",
      "outputs": [
        {
          "internalType": "contract PrizePool",
          "name": "",
          "type": "address"
        }
      ],
      "stateMutability": "nonpayable",
      "type": "function"
    },
    {
      "inputs": [],
      "name": "fetchPools",
      "outputs": [
        {
          "components": [
            {
              "internalType": "string",
              "name": "name",
              "type": "string"
            },
            {
              "internalType": "string",
              "name": "symbol",
              "type": "string"
            },
            {
              "internalType": "address",
              "name": "prizePoolAddress",
              "type": "address"
            },
            {
              "internalType": "address",
              "name": "tokenAddress",
              "type": "address"
            },
            {
              "internalType": "address",
              "name": "yieldProtocolAddress",
              "type": "address"
            },
            {
              "internalType": "uint256",
              "name": "depositionDeadline",
              "type": "uint256"
            },
            {
              "internalType": "uint256",
              "name": "withdrawalTime",
              "type": "uint256"
            }
          ],
          "internalType": "struct PrizePoolManager.PrizePoolStruct[]",
          "name": "",
          "type": "tuple[]"
        }
      ],
      "stateMutability": "view",
      "type": "function"
    },
    {
      "inputs": [],
      "name": "owner",
      "outputs": [
        {
          "internalType": "address",
          "name": "",
          "type": "address"
        }
      ],
      "stateMutability": "view",
      "type": "function"
    },
    {
      "inputs": [
        {
          "internalType": "uint256",
          "name": "",
          "type": "uint256"
        }
      ],
      "name": "prizePools",
      "outputs": [
        {
          "internalType": "string",
          "name": "name",
          "type": "string"
        },
        {
          "internalType": "string",
          "name": "symbol",
          "type": "string"
        },
        {
          "internalType": "address",
          "name": "prizePoolAddress",
          "type": "address"
        },
        {
          "internalType": "address",
          "name": "tokenAddress",
          "type": "address"
        },
        {
          "internalType": "address",
          "name": "yieldProtocolAddress",
          "type": "address"
        },
        {
          "internalType": "uint256",
          "name": "depositionDeadline",
          "type": "uint256"
        },
        {
          "internalType": "uint256",
          "name": "withdrawalTime",
          "type": "uint256"
        }
      ],
      "stateMutability": "view",
      "type": "function"
    },
    {
      "inputs": [],
      "name": "renounceOwnership",
      "outputs": [],
      "stateMutability": "nonpayable",
      "type": "function"
    },
    {
      "inputs": [
        {
          "internalType": "address",
          "name": "newOwner",
          "type": "address"
        }
      ],
      "name": "transferOwnership",
      "outputs": [],
      "stateMutability": "nonpayable",
      "type": "function"
    }
  ],
  "bytecode": "0x608060405234801561001057600080fd5b50338061003757604051631e4fbdf760e01b81526000600482015260240160405180910390fd5b61004081610046565b50610096565b600080546001600160a01b038381166001600160a01b0319831681178455604051919092169283917f8be0079c531659141344cd1fd0a4f28419497f9722a3daafe3b4186f6b6457e09190a35050565b6138b9806100a56000396000f3fe60806040523480156200001157600080fd5b50600436106200006a5760003560e01c80630644445f146200006f578063715018a614620000915780638da5cb5b146200009d578063eddad39414620000c3578063f107d40214620000ef578063f2fde38b1462000106575b600080fd5b620000796200011d565b604051620000889190620008de565b60405180910390f35b6200009b620002fa565b005b6000546001600160a01b03165b6040516001600160a01b03909116815260200162000088565b620000da620000d4366004620009ad565b62000312565b604051620000889796959493929190620009c7565b620000aa6200010036600462000aed565b62000494565b6200009b6200011736600462000b8f565b620007c1565b60606001805480602002602001604051908101604052809291908181526020016000905b82821015620002f157838290600052602060002090600702016040518060e0016040529081600082018054620001779062000bb4565b80601f0160208091040260200160405190810160405280929190818152602001828054620001a59062000bb4565b8015620001f65780601f10620001ca57610100808354040283529160200191620001f6565b820191906000526020600020905b815481529060010190602001808311620001d857829003601f168201915b50505050508152602001600182018054620002119062000bb4565b80601f01602080910402602001604051908101604052809291908181526020018280546200023f9062000bb4565b8015620002905780601f10620002645761010080835404028352916020019162000290565b820191906000526020600020905b8154815290600101906020018083116200027257829003601f168201915b505050918352505060028201546001600160a01b03908116602080840191909152600384015482166040840152600484015490911660608301526005830154608083015260069092015460a090910152908252600192909201910162000141565b50505050905090565b6200030462000809565b62000310600062000838565b565b600181815481106200032357600080fd5b9060005260206000209060070201600091509050806000018054620003489062000bb4565b80601f0160208091040260200160405190810160405280929190818152602001828054620003769062000bb4565b8015620003c75780601f106200039b57610100808354040283529160200191620003c7565b820191906000526020600020905b815481529060010190602001808311620003a957829003601f168201915b505050505090806001018054620003de9062000bb4565b80601f01602080910402602001604051908101604052809291908181526020018280546200040c9062000bb4565b80156200045d5780601f1062000431576101008083540402835291602001916200045d565b820191906000526020600020905b8154815290600101906020018083116200043f57829003601f168201915b505050600284015460038501546004860154600587015460069097015495966001600160a01b039384169692841695509216925087565b6000808787878730888833604051620004ad9062000888565b620004c098979695949392919062000bf0565b604051809103906000f080158015620004dd573d6000803e3d6000fd5b50905060016040518060e001604052808a8152602001898152602001836001600160a01b03168152602001876001600160a01b03168152602001886001600160a01b03168152602001836001600160a01b03166361603d896040518163ffffffff1660e01b8152600401602060405180830381865afa15801562000565573d6000803e3d6000fd5b505050506040513d601f19601f820116820180604052508101906200058b919062000c5d565b8152602001836001600160a01b03166324ac60a76040518163ffffffff1660e01b8152600401602060405180830381865afa158015620005cf573d6000803e3d6000fd5b505050506040513d601f19601f82011682018060405250810190620005f5919062000c5d565b9052815460018101835560009283526020909220815191926007020190819062000620908262000cca565b506020820151600182019062000637908262000cca565b506040828101516002830180546001600160a01b03199081166001600160a01b0393841617909155606085015160038501805483169184169190911790556080850151600480860180549093169184169190911790915560a0850151600585015560c09094015160069093019290925580516361603d8960e01b8152905189831693898416938616927f03e36bddde85b4dc0df036c88ac8abd3140ed4076e9608c43855d1f3a45632d1928e928e9286926361603d89928281019260209291908290030181865afa15801562000711573d6000803e3d6000fd5b505050506040513d601f19601f8201168201806040525081019062000737919062000c5d565b876001600160a01b03166324ac60a76040518163ffffffff1660e01b8152600401602060405180830381865afa15801562000776573d6000803e3d6000fd5b505050506040513d601f19601f820116820180604052508101906200079c919062000c5d565b604051620007ae949392919062000d97565b60405180910390a4979650505050505050565b620007cb62000809565b6001600160a01b038116620007fb57604051631e4fbdf760e01b8152600060048201526024015b60405180910390fd5b620008068162000838565b50565b6000546001600160a01b03163314620003105760405163118cdaa760e01b8152336004820152602401620007f2565b600080546001600160a01b038381166001600160a01b0319831681178455604051919092169283917f8be0079c531659141344cd1fd0a4f28419497f9722a3daafe3b4186f6b6457e09190a35050565b612aaf8062000dd583390190565b6000815180845260005b81811015620008be57602081850181015186830182015201620008a0565b506000602082860101526020601f19601f83011685010191505092915050565b60006020808301818452808551808352604092508286019150828160051b87010184880160005b838110156200099f57603f19898403018552815160e081518186526200092e8287018262000896565b915050888201518582038a87015262000948828262000896565b838a01516001600160a01b03908116888c01526060808601518216908901526080808601519091169088015260a0808501519088015260c09384015193909601929092525050938601939086019060010162000905565b509098975050505050505050565b600060208284031215620009c057600080fd5b5035919050565b60e081526000620009dc60e083018a62000896565b8281036020840152620009f0818a62000896565b6001600160a01b0398891660408501529688166060840152505092909416608083015260a082015260c0019190915292915050565b634e487b7160e01b600052604160045260246000fd5b600082601f83011262000a4d57600080fd5b813567ffffffffffffffff8082111562000a6b5762000a6b62000a25565b604051601f8301601f19908116603f0116810190828211818310171562000a965762000a9662000a25565b8160405283815286602085880101111562000ab057600080fd5b836020870160208301376000602085830101528094505050505092915050565b80356001600160a01b038116811462000ae857600080fd5b919050565b60008060008060008060c0878903121562000b0757600080fd5b863567ffffffffffffffff8082111562000b2057600080fd5b62000b2e8a838b0162000a3b565b9750602089013591508082111562000b4557600080fd5b5062000b5489828a0162000a3b565b95505062000b656040880162000ad0565b935062000b756060880162000ad0565b92506080870135915060a087013590509295509295509295565b60006020828403121562000ba257600080fd5b62000bad8262000ad0565b9392505050565b600181811c9082168062000bc957607f821691505b60208210810362000bea57634e487b7160e01b600052602260045260246000fd5b50919050565b600061010080835262000c068184018c62000896565b9050828103602084015262000c1c818b62000896565b6001600160a01b03998a16604085015297891660608401525050938616608085015260a084019290925260c083015290921660e09092019190915292915050565b60006020828403121562000c7057600080fd5b5051919050565b601f82111562000cc557600081815260208120601f850160051c8101602086101562000ca05750805b601f850160051c820191505b8181101562000cc15782815560010162000cac565b5050505b505050565b815167ffffffffffffffff81111562000ce75762000ce762000a25565b62000cff8162000cf8845462000bb4565b8462000c77565b602080601f83116001811462000d37576000841562000d1e5750858301515b600019600386901b1c1916600185901b17855562000cc1565b600085815260208120601f198616915b8281101562000d685788860151825594840194600190910190840162000d47565b508582101562000d875787850151600019600388901b60f8161c191681555b5050505050600190811b01905550565b60808152600062000dac608083018762000896565b828103602084015262000dc0818762000896565b60408401959095525050606001529291505056fe60806040523480156200001157600080fd5b5060405162002aaf38038062002aaf833981016040819052620000349162000295565b806001600160a01b0381166200006457604051631e4fbdf760e01b81526000600482015260240160405180910390fd5b6200006f816200014d565b50878760123060405162000083906200019d565b6200009294939291906200038b565b604051809103906000f080158015620000af573d6000803e3d6000fd5b50600480546001600160a01b03199081166001600160a01b039384161790915560028054909116918616919091179055620000eb8342620003d9565b600655620000fa8242620003d9565b6007555050600180546001600160a01b039586166001600160a01b0319918216811790925560038054959096169481169490941790945550506000600b5560108054909116909117905550620004019050565b600080546001600160a01b038381166001600160a01b0319831681178455604051919092169283917f8be0079c531659141344cd1fd0a4f28419497f9722a3daafe3b4186f6b6457e09190a35050565b6118f380620011bc83390190565b634e487b7160e01b600052604160045260246000fd5b60005b83811015620001de578181015183820152602001620001c4565b50506000910152565b600082601f830112620001f957600080fd5b81516001600160401b0380821115620002165762000216620001ab565b604051601f8301601f19908116603f01168101908282118183101715620002415762000241620001ab565b816040528381528660208588010111156200025b57600080fd5b6200026e846020830160208901620001c1565b9695505050505050565b80516001600160a01b03811681146200029057600080fd5b919050565b600080600080600080600080610100898b031215620002b357600080fd5b88516001600160401b0380821115620002cb57600080fd5b620002d98c838d01620001e7565b995060208b0151915080821115620002f057600080fd5b50620002ff8b828c01620001e7565b9750506200031060408a0162000278565b95506200032060608a0162000278565b94506200033060808a0162000278565b935060a0890151925060c089015191506200034e60e08a0162000278565b90509295985092959890939650565b6000815180845262000377816020860160208601620001c1565b601f01601f19169290920160200192915050565b608081526000620003a060808301876200035d565b8281036020840152620003b481876200035d565b60ff95909516604084015250506001600160a01b039190911660609091015292915050565b80820180821115620003fb57634e487b7160e01b600052601160045260246000fd5b92915050565b610dab80620004116000396000f3fe6080604052600436106101b75760003560e01c80637d882097116100ec578063dfbf53ae1161008a578063f4fb3df411610064578063f4fb3df414610494578063f5d0a7ba146104c1578063fc0c546a146104d7578063fc7e286d146104f757600080fd5b8063dfbf53ae14610434578063e11932cf14610454578063f2fde38b1461047457600080fd5b80639d9ca28d116100c65780639d9ca28d146103c2578063b2185bb114610401578063bc7a36d614610416578063d0e30db01461042c57600080fd5b80637d882097146103785780637fb3e3d31461038e5780638da5cb5b146103a457600080fd5b8063335932fc116101595780636cc25db7116101335780636cc25db7146102f65780636dcbf2a314610316578063715018a6146103435780637c2efcba1461035857600080fd5b8063335932fc146102955780633ccfd60b146102cb57806361603d89146102e057600080fd5b80631e79b61f116101955780631e79b61f146102345780632240dbdb1461024957806324ac60a71461025f57806325a0949f1461027557600080fd5b806306661abd146101bc57806307236e6a146101e55780631adc3213146101fc575b600080fd5b3480156101c857600080fd5b506101d2600b5481565b6040519081526020015b60405180910390f35b3480156101f157600080fd5b506101fa610524565b005b34801561020857600080fd5b5060015461021c906001600160a01b031681565b6040516001600160a01b0390911681526020016101dc565b34801561024057600080fd5b506101d2610664565b34801561025557600080fd5b506101d2600d5481565b34801561026b57600080fd5b506101d260065481565b34801561028157600080fd5b5060025461021c906001600160a01b031681565b3480156102a157600080fd5b5061021c6102b0366004610c7c565b6009602052600090815260409020546001600160a01b031681565b3480156102d757600080fd5b506101fa610847565b3480156102ec57600080fd5b506101d260075481565b34801561030257600080fd5b5060045461021c906001600160a01b031681565b34801561032257600080fd5b506101d2610331366004610c95565b600a6020526000908152604090205481565b34801561034f57600080fd5b506101fa610a31565b34801561036457600080fd5b5060105461021c906001600160a01b031681565b34801561038457600080fd5b506101d2600c5481565b34801561039a57600080fd5b506101d2600e5481565b3480156103b057600080fd5b506000546001600160a01b031661021c565b3480156103ce57600080fd5b506103f16103dd366004610c95565b6005546001600160a01b0390811691161490565b60405190151581526020016101dc565b34801561040d57600080fd5b5061021c610a45565b34801561042257600080fd5b506101d2600f5481565b6101d2610ac5565b34801561044057600080fd5b5060055461021c906001600160a01b031681565b34801561046057600080fd5b506101d261046f366004610c95565b610b99565b34801561048057600080fd5b506101fa61048f366004610c95565b610bc1565b3480156104a057600080fd5b506101d26104af366004610c95565b60116020526000908152604090205481565b3480156104cd57600080fd5b506101d260125481565b3480156104e357600080fd5b5060035461021c906001600160a01b031681565b34801561050357600080fd5b506101d2610512366004610c95565b60086020526000908152604090205481565b61052c610bff565b6000600d54116105835760405162461bcd60e51b815260206004820152601d60248201527f416d6f756e74206d7573742062652067726561746572207468616e203000000060448201526064015b60405180910390fd5b47600d5411156105cc5760405162461bcd60e51b8152602060048201526014602482015273496e73756666696369656e742062616c616e636560601b604482015260640161057a565b6000600d5547600e819055600c546105e391610cdb565b600f556105ee610a45565b507fcd25230489306d0f8e9a0fc28ac0aa1a9b2c80ae3fa7a9da126a69e027297415600e5460405161062291815260200190565b60405180910390a16005546040516001600160a01b03909116907fb1899e5911a12372a7fa329d3051f8358e8f5156f66bcf69707ea096419681b790600090a2565b600061066e610bff565b6000600c54116106c05760405162461bcd60e51b815260206004820152601d60248201527f416d6f756e74206d7573742062652067726561746572207468616e2030000000604482015260640161057a565b47808061070f5760405162461bcd60e51b815260206004820152601d60248201527f536861726573206d7573742062652067726561746572207468616e2030000000604482015260640161057a565b600d819055600b5460005b8181101561080857600d54600c546000838152600960209081526040808320546001600160a01b0316835260089091529020546107579190610d0a565b6107619190610d1e565b600082815260096020908152604080832080546001600160a01b039081168552600a90935281842094909455600480549454831680855293829020549151630baf60eb60e31b81529081019390935260248301529190911690635d7b075890604401600060405180830381600087803b1580156107dd57600080fd5b505af11580156107f1573d6000803e3d6000fd5b50505050808061080090610d35565b91505061071a565b506040518381527fa45c34a76ad33c81162d20c88631364fd4d27d9dbe9e7e479953504d5faf88579060200160405180910390a1600d54935050505090565b33600090815260086020526040902054806108af5760405162461bcd60e51b815260206004820152602260248201527f596f752068617665206e6f74206465706f736974656420616e7920616d6f756e6044820152613a1760f11b606482015260840161057a565b60048054336000818152600a6020526040908190205490516390596dd160e01b81529384019190915260248301526001600160a01b0316906390596dd190604401600060405180830381600087803b15801561090a57600080fd5b505af115801561091e573d6000803e3d6000fd5b50505050600061092d33610b99565b905081600c5461093d9190610cdb565b600c55336000908152600860209081526040808320839055600a90915281208190556109698383610d4e565b604051909150600090339083908381818185875af1925050503d80600081146109ae576040519150601f19603f3d011682016040523d82523d6000602084013e6109b3565b606091505b50509050806109f65760405162461bcd60e51b815260206004820152600f60248201526e15da5d1a191c985dc819985a5b1959608a1b604482015260640161057a565b60405182815233907fd8138f8a3f377c5259ca548e70e4c2de94f129f5a11036a15b69513cba2b426a9060200160405180910390a250505050565b610a39610bff565b610a436000610c2c565b565b6000804244604051602001610a64929190918252602082015260400190565b6040516020818303038152906040528051906020012060001c905060096000600b5483610a919190610d61565b8152602081019190915260400160002054600580546001600160a01b0319166001600160a01b039092169190911790555090565b336000908152600860205260408120548103610b1557600b8054600090815260096020526040812080546001600160a01b0319163317905581546001929190610b0f908490610d4e565b90915550505b34600c6000828254610b279190610d4e565b90915550503360009081526008602052604081208054349290610b4b908490610d4e565b909155505060405134815233907f2da466a7b24304f47e87fa2e1e5a81b9831ce54fec19055ce277ca2f39ba42c49060200160405180910390a2503360009081526008602052604090205490565b6005546000906001600160a01b03808416911603610bb9575050600f5490565b506000919050565b610bc9610bff565b6001600160a01b038116610bf357604051631e4fbdf760e01b81526000600482015260240161057a565b610bfc81610c2c565b50565b6000546001600160a01b03163314610a435760405163118cdaa760e01b815233600482015260240161057a565b600080546001600160a01b038381166001600160a01b0319831681178455604051919092169283917f8be0079c531659141344cd1fd0a4f28419497f9722a3daafe3b4186f6b6457e09190a35050565b600060208284031215610c8e57600080fd5b5035919050565b600060208284031215610ca757600080fd5b81356001600160a01b0381168114610cbe57600080fd5b9392505050565b634e487b7160e01b600052601160045260246000fd5b81810381811115610cee57610cee610cc5565b92915050565b634e487b7160e01b600052601260045260246000fd5b600082610d1957610d19610cf4565b500490565b8082028115828204841417610cee57610cee610cc5565b600060018201610d4757610d47610cc5565b5060010190565b80820180821115610cee57610cee610cc5565b600082610d7057610d70610cf4565b50069056fea2646970667358221220bdd2fbbe037feecd8091a0d12776d66b3bd9e641da1f245f6d47bb7843ac636464736f6c634300081400336101a06040523480156200001257600080fd5b50604051620018f3380380620018f38339810160408190526200003591620003df565b838383836040518060400160405280601c81526020017f506f6f6c546f67657468657220436f6e74726f6c6c6564546f6b656e0000000081525080604051806040016040528060018152602001603160f81b815250868681600390816200009d919062000512565b506004620000ac828262000512565b50620000be9150839050600562000296565b61012052620000cf81600662000296565b61014052815160208084019190912060e052815190820120610100524660a0526200015d60e05161010051604080517f8b73c3c69bb8fe3d512ecc4cf759cc79239f7b179b0ffacaa9a75d522b39400f60208201529081019290925260608201524660808201523060a082015260009060c00160405160208183030381529060405280519060200120905090565b60805250503060c052506001600160a01b038116620001d75760405162461bcd60e51b815260206004820152602b60248201527f436f6e74726f6c6c6564546f6b656e2f636f6e74726f6c6c65722d6e6f742d7a60448201526a65726f2d6164647265737360a81b60648201526084015b60405180910390fd5b6001600160a01b0381166101605260ff8216620002375760405162461bcd60e51b815260206004820181905260248201527f436f6e74726f6c6c6564546f6b656e2f646563696d616c732d67742d7a65726f6044820152606401620001ce565b60ff8216610180526040516001600160a01b038216907fde72fc29218361f33503847e6f32be813f9ec92fc7c772bb59e46675c890fd0e9062000280908790879087906200060c565b60405180910390a250505050505050506200068a565b6000602083511015620002b657620002ae83620002cf565b9050620002c9565b81620002c3848262000512565b5060ff90505b92915050565b600080829050601f81511115620002fd578260405163305a27a960e01b8152600401620001ce919062000649565b80516200030a8262000665565b179392505050565b634e487b7160e01b600052604160045260246000fd5b60005b83811015620003455781810151838201526020016200032b565b50506000910152565b600082601f8301126200036057600080fd5b81516001600160401b03808211156200037d576200037d62000312565b604051601f8301601f19908116603f01168101908282118183101715620003a857620003a862000312565b81604052838152866020858801011115620003c257600080fd5b620003d584602083016020890162000328565b9695505050505050565b60008060008060808587031215620003f657600080fd5b84516001600160401b03808211156200040e57600080fd5b6200041c888389016200034e565b955060208701519150808211156200043357600080fd5b5062000442878288016200034e565b935050604085015160ff811681146200045a57600080fd5b60608601519092506001600160a01b03811681146200047857600080fd5b939692955090935050565b600181811c908216806200049857607f821691505b602082108103620004b957634e487b7160e01b600052602260045260246000fd5b50919050565b601f8211156200050d57600081815260208120601f850160051c81016020861015620004e85750805b601f850160051c820191505b818110156200050957828155600101620004f4565b5050505b505050565b81516001600160401b038111156200052e576200052e62000312565b62000546816200053f845462000483565b84620004bf565b602080601f8311600181146200057e5760008415620005655750858301515b600019600386901b1c1916600185901b17855562000509565b600085815260208120601f198616915b82811015620005af578886015182559484019460019091019084016200058e565b5085821015620005ce5787850151600019600388901b60f8161c191681555b5050505050600190811b01905550565b60008151808452620005f881602086016020860162000328565b601f01601f19169290920160200192915050565b606081526000620006216060830186620005de565b8281036020840152620006358186620005de565b91505060ff83166040830152949350505050565b6020815260006200065e6020830184620005de565b9392505050565b80516020808301519190811015620004b95760001960209190910360031b1b16919050565b60805160a05160c05160e05161010051610120516101405161016051610180516111e3620007106000396000610188015260008181610292015281816103df0152818161043e0152610531015260006109970152600061096a015260006108a60152600061087e015260006107d9015260006108030152600061082d01526111e36000f3fe608060405234801561001057600080fd5b50600436106101165760003560e01c80637ecebe00116100a2578063a9059cbb11610071578063a9059cbb14610254578063d505accf14610267578063dd62ed3e1461027a578063f77c47911461028d578063f8b2cb4f146102cc57600080fd5b80637ecebe001461020b57806384b0196e1461021e57806390596dd11461023957806395d89b411461024c57600080fd5b8063313ce567116100e9578063313ce567146101815780633644e515146101b25780635d7b0758146101ba578063631b5dfb146101cf57806370a08231146101e257600080fd5b806306fdde031461011b578063095ea7b31461013957806318160ddd1461015c57806323b872dd1461016e575b600080fd5b6101236102f5565b6040516101309190610ef7565b60405180910390f35b61014c610147366004610f2d565b610387565b6040519015158152602001610130565b6002545b604051908152602001610130565b61014c61017c366004610f57565b6103a1565b60405160ff7f0000000000000000000000000000000000000000000000000000000000000000168152602001610130565b6101606103c5565b6101cd6101c8366004610f2d565b6103d4565b005b6101cd6101dd366004610f57565b610433565b6101606101f0366004610f93565b6001600160a01b031660009081526020819052604090205490565b610160610219366004610f93565b6104c2565b6102266104e0565b6040516101309796959493929190610fae565b6101cd610247366004610f2d565b610526565b610123610578565b61014c610262366004610f2d565b610587565b6101cd610275366004611044565b610595565b6101606102883660046110b7565b6106cf565b6102b47f000000000000000000000000000000000000000000000000000000000000000081565b6040516001600160a01b039091168152602001610130565b6101606102da366004610f93565b6001600160a01b031660009081526008602052604090205490565b606060038054610304906110ea565b80601f0160208091040260200160405190810160405280929190818152602001828054610330906110ea565b801561037d5780601f106103525761010080835404028352916020019161037d565b820191906000526020600020905b81548152906001019060200180831161036057829003601f168201915b5050505050905090565b6000336103958185856106fa565b60019150505b92915050565b6000336103af858285610707565b6103ba85858561076d565b506001949350505050565b60006103cf6107cc565b905090565b336001600160a01b037f000000000000000000000000000000000000000000000000000000000000000016146104255760405162461bcd60e51b815260040161041c90611124565b60405180910390fd5b61042f82826108f7565b5050565b336001600160a01b037f0000000000000000000000000000000000000000000000000000000000000000161461047b5760405162461bcd60e51b815260040161041c90611124565b816001600160a01b0316836001600160a01b0316146104b3576104b38284836104a486886106cf565b6104ae9190611171565b6106fa565b6104bd828261092d565b505050565b6001600160a01b03811660009081526007602052604081205461039b565b6000606080600080600060606104f4610963565b6104fc610990565b60408051600080825260208201909252600f60f81b9b939a50919850469750309650945092509050565b336001600160a01b037f0000000000000000000000000000000000000000000000000000000000000000161461056e5760405162461bcd60e51b815260040161041c90611124565b61042f828261092d565b606060048054610304906110ea565b60003361039581858561076d565b834211156105b95760405163313c898160e11b81526004810185905260240161041c565b60007f6e71edae12b1b97f4d1f60370fef10105fa2faae0126114a169c64845d6126c98888886106068c6001600160a01b0316600090815260076020526040902080546001810190915590565b6040805160208101969096526001600160a01b0394851690860152929091166060840152608083015260a082015260c0810186905260e0016040516020818303038152906040528051906020012090506000610661826109bd565b90506000610671828787876109ea565b9050896001600160a01b0316816001600160a01b0316146106b8576040516325c0072360e11b81526001600160a01b0380831660048301528b16602482015260440161041c565b6106c38a8a8a6106fa565b50505050505050505050565b6001600160a01b03918216600090815260016020908152604080832093909416825291909152205490565b6104bd8383836001610a18565b600061071384846106cf565b90506000198114610767578181101561075857604051637dc7a0d960e11b81526001600160a01b0384166004820152602481018290526044810183905260640161041c565b61076784848484036000610a18565b50505050565b6001600160a01b03831661079757604051634b637e8f60e11b81526000600482015260240161041c565b6001600160a01b0382166107c15760405163ec442f0560e01b81526000600482015260240161041c565b6104bd838383610aed565b6000306001600160a01b037f00000000000000000000000000000000000000000000000000000000000000001614801561082557507f000000000000000000000000000000000000000000000000000000000000000046145b1561084f57507f000000000000000000000000000000000000000000000000000000000000000090565b6103cf604080517f8b73c3c69bb8fe3d512ecc4cf759cc79239f7b179b0ffacaa9a75d522b39400f60208201527f0000000000000000000000000000000000000000000000000000000000000000918101919091527f000000000000000000000000000000000000000000000000000000000000000060608201524660808201523060a082015260009060c00160405160208183030381529060405280519060200120905090565b6001600160a01b0382166109215760405163ec442f0560e01b81526000600482015260240161041c565b61042f60008383610aed565b6001600160a01b03821661095757604051634b637e8f60e11b81526000600482015260240161041c565b61042f82600083610aed565b60606103cf7f00000000000000000000000000000000000000000000000000000000000000006005610c17565b60606103cf7f00000000000000000000000000000000000000000000000000000000000000006006610c17565b600061039b6109ca6107cc565b8360405161190160f01b8152600281019290925260228201526042902090565b6000806000806109fc88888888610cc2565b925092509250610a0c8282610d91565b50909695505050505050565b6001600160a01b038416610a425760405163e602df0560e01b81526000600482015260240161041c565b6001600160a01b038316610a6c57604051634a1406b160e11b81526000600482015260240161041c565b6001600160a01b038085166000908152600160209081526040808320938716835292905220829055801561076757826001600160a01b0316846001600160a01b03167f8c5be1e5ebec7d5bd14f71427d1e84f3dd0314c0f7b2291e5b200ac8c7c3b92584604051610adf91815260200190565b60405180910390a350505050565b6001600160a01b038316610b18578060026000828254610b0d9190611184565b90915550610b8a9050565b6001600160a01b03831660009081526020819052604090205481811015610b6b5760405163391434e360e21b81526001600160a01b0385166004820152602481018290526044810183905260640161041c565b6001600160a01b03841660009081526020819052604090209082900390555b6001600160a01b038216610ba657600280548290039055610bc5565b6001600160a01b03821660009081526020819052604090208054820190555b816001600160a01b0316836001600160a01b03167fddf252ad1be2c89b69c2b068fc378daa952ba7f163c4a11628f55a4df523b3ef83604051610c0a91815260200190565b60405180910390a3505050565b606060ff8314610c3157610c2a83610e4a565b905061039b565b818054610c3d906110ea565b80601f0160208091040260200160405190810160405280929190818152602001828054610c69906110ea565b8015610cb65780601f10610c8b57610100808354040283529160200191610cb6565b820191906000526020600020905b815481529060010190602001808311610c9957829003601f168201915b5050505050905061039b565b600080807f7fffffffffffffffffffffffffffffff5d576e7357a4501ddfe92f46681b20a0841115610cfd5750600091506003905082610d87565b604080516000808252602082018084528a905260ff891692820192909252606081018790526080810186905260019060a0016020604051602081039080840390855afa158015610d51573d6000803e3d6000fd5b5050604051601f1901519150506001600160a01b038116610d7d57506000925060019150829050610d87565b9250600091508190505b9450945094915050565b6000826003811115610da557610da5611197565b03610dae575050565b6001826003811115610dc257610dc2611197565b03610de05760405163f645eedf60e01b815260040160405180910390fd5b6002826003811115610df457610df4611197565b03610e155760405163fce698f760e01b81526004810182905260240161041c565b6003826003811115610e2957610e29611197565b0361042f576040516335e2f38360e21b81526004810182905260240161041c565b60606000610e5783610e89565b604080516020808252818301909252919250600091906020820181803683375050509182525060208101929092525090565b600060ff8216601f81111561039b57604051632cd44ac360e21b815260040160405180910390fd5b6000815180845260005b81811015610ed757602081850181015186830182015201610ebb565b506000602082860101526020601f19601f83011685010191505092915050565b602081526000610f0a6020830184610eb1565b9392505050565b80356001600160a01b0381168114610f2857600080fd5b919050565b60008060408385031215610f4057600080fd5b610f4983610f11565b946020939093013593505050565b600080600060608486031215610f6c57600080fd5b610f7584610f11565b9250610f8360208501610f11565b9150604084013590509250925092565b600060208284031215610fa557600080fd5b610f0a82610f11565b60ff60f81b881681526000602060e081840152610fce60e084018a610eb1565b8381036040850152610fe0818a610eb1565b606085018990526001600160a01b038816608086015260a0850187905284810360c0860152855180825283870192509083019060005b8181101561103257835183529284019291840191600101611016565b50909c9b505050505050505050505050565b600080600080600080600060e0888a03121561105f57600080fd5b61106888610f11565b965061107660208901610f11565b95506040880135945060608801359350608088013560ff8116811461109a57600080fd5b9699959850939692959460a0840135945060c09093013592915050565b600080604083850312156110ca57600080fd5b6110d383610f11565b91506110e160208401610f11565b90509250929050565b600181811c908216806110fe57607f821691505b60208210810361111e57634e487b7160e01b600052602260045260246000fd5b50919050565b6020808252601f908201527f436f6e74726f6c6c6564546f6b656e2f6f6e6c792d636f6e74726f6c6c657200604082015260600190565b634e487b7160e01b600052601160045260246000fd5b8181038181111561039b5761039b61115b565b8082018082111561039b5761039b61115b565b634e487b7160e01b600052602160045260246000fdfea26469706673582212206258d6f5e3c122f94cfab720422913068ab0511ab8a1ae9750e6893040a6b7b264736f6c63430008140033a2646970667358221220f04a13934fae98823ff9263c5f2de51faa5a16bb6cb57ff4de5e58c2988fe39464736f6c63430008140033",
  "linkReferences": {},
  "deployedLinkReferences": {}
}