{
  "_format": "hh-sol-artifact-1",
  "contractName": "Ticket",
  "sourceName": "contracts/Ticket.sol",
  "abi": [
    {
      "inputs": [
        {
          "internalType": "string",
          "name": "_name",
          "type": "string"
        },
        {
          "internalType": "string",
          "name": "_symbol",
          "type": "string"
        },
        {
          "internalType": "uint8",
          "name": "decimals_",
          "type": "uint8"
        },
        {
          "internalType": "address",
          "name": "_controller",
          "type": "address"
        }
      ],
      "stateMutability": "nonpayable",
      "type": "constructor"
    },
    {
      "inputs": [],
      "name": "ECDSAInvalidSignature",
      "type": "error"
    },
    {
      "inputs": [
        {
          "internalType": "uint256",
          "name": "length",
          "type": "uint256"
        }
      ],
      "name": "ECDSAInvalidSignatureLength",
      "type": "error"
    },
    {
      "inputs": [
        {
          "internalType": "bytes32",
          "name": "s",
          "type": "bytes32"
        }
      ],
      "name": "ECDSAInvalidSignatureS",
      "type": "error"
    },
    {
      "inputs": [
        {
          "internalType": "address",
          "name": "spender",
          "type": "address"
        },
        {
          "internalType": "uint256",
          "name": "allowance",
          "type": "uint256"
        },
        {
          "internalType": "uint256",
          "name": "needed",
          "type": "uint256"
        }
      ],
      "name": "ERC20InsufficientAllowance",
      "type": "error"
    },
    {
      "inputs": [
        {
          "internalType": "address",
          "name": "sender",
          "type": "address"
        },
        {
          "internalType": "uint256",
          "name": "balance",
          "type": "uint256"
        },
        {
          "internalType": "uint256",
          "name": "needed",
          "type": "uint256"
        }
      ],
      "name": "ERC20InsufficientBalance",
      "type": "error"
    },
    {
      "inputs": [
        {
          "internalType": "address",
          "name": "approver",
          "type": "address"
        }
      ],
      "name": "ERC20InvalidApprover",
      "type": "error"
    },
    {
      "inputs": [
        {
          "internalType": "address",
          "name": "receiver",
          "type": "address"
        }
      ],
      "name": "ERC20InvalidReceiver",
      "type": "error"
    },
    {
      "inputs": [
        {
          "internalType": "address",
          "name": "sender",
          "type": "address"
        }
      ],
      "name": "ERC20InvalidSender",
      "type": "error"
    },
    {
      "inputs": [
        {
          "internalType": "address",
          "name": "spender",
          "type": "address"
        }
      ],
      "name": "ERC20InvalidSpender",
      "type": "error"
    },
    {
      "inputs": [
        {
          "internalType": "uint256",
          "name": "deadline",
          "type": "uint256"
        }
      ],
      "name": "ERC2612ExpiredSignature",
      "type": "error"
    },
    {
      "inputs": [
        {
          "internalType": "address",
          "name": "signer",
          "type": "address"
        },
        {
          "internalType": "address",
          "name": "owner",
          "type": "address"
        }
      ],
      "name": "ERC2612InvalidSigner",
      "type": "error"
    },
    {
      "inputs": [
        {
          "internalType": "address",
          "name": "account",
          "type": "address"
        },
        {
          "internalType": "uint256",
          "name": "currentNonce",
          "type": "uint256"
        }
      ],
      "name": "InvalidAccountNonce",
      "type": "error"
    },
    {
      "inputs": [],
      "name": "InvalidShortString",
      "type": "error"
    },
    {
      "inputs": [
        {
          "internalType": "string",
          "name": "str",
          "type": "string"
        }
      ],
      "name": "StringTooLong",
      "type": "error"
    },
    {
      "anonymous": false,
      "inputs": [
        {
          "indexed": true,
          "internalType": "address",
          "name": "owner",
          "type": "address"
        },
        {
          "indexed": true,
          "internalType": "address",
          "name": "spender",
          "type": "address"
        },
        {
          "indexed": false,
          "internalType": "uint256",
          "name": "value",
          "type": "uint256"
        }
      ],
      "name": "Approval",
      "type": "event"
    },
    {
      "anonymous": false,
      "inputs": [
        {
          "indexed": false,
          "internalType": "string",
          "name": "name",
          "type": "string"
        },
        {
          "indexed": false,
          "internalType": "string",
          "name": "symbol",
          "type": "string"
        },
        {
          "indexed": false,
          "internalType": "uint8",
          "name": "decimals",
          "type": "uint8"
        },
        {
          "indexed": true,
          "internalType": "address",
          "name": "controller",
          "type": "address"
        }
      ],
      "name": "Deployed",
      "type": "event"
    },
    {
      "anonymous": false,
      "inputs": [],
      "name": "EIP712DomainChanged",
      "type": "event"
    },
    {
      "anonymous": false,
      "inputs": [
        {
          "indexed": true,
          "internalType": "address",
          "name": "from",
          "type": "address"
        },
        {
          "indexed": true,
          "internalType": "address",
          "name": "to",
          "type": "address"
        },
        {
          "indexed": false,
          "internalType": "uint256",
          "name": "value",
          "type": "uint256"
        }
      ],
      "name": "Transfer",
      "type": "event"
    },
    {
      "inputs": [],
      "name": "DOMAIN_SEPARATOR",
      "outputs": [
        {
          "internalType": "bytes32",
          "name": "",
          "type": "bytes32"
        }
      ],
      "stateMutability": "view",
      "type": "function"
    },
    {
      "inputs": [
        {
          "internalType": "address",
          "name": "owner",
          "type": "address"
        },
        {
          "internalType": "address",
          "name": "spender",
          "type": "address"
        }
      ],
      "name": "allowance",
      "outputs": [
        {
          "internalType": "uint256",
          "name": "",
          "type": "uint256"
        }
      ],
      "stateMutability": "view",
      "type": "function"
    },
    {
      "inputs": [
        {
          "internalType": "address",
          "name": "spender",
          "type": "address"
        },
        {
          "internalType": "uint256",
          "name": "value",
          "type": "uint256"
        }
      ],
      "name": "approve",
      "outputs": [
        {
          "internalType": "bool",
          "name": "",
          "type": "bool"
        }
      ],
      "stateMutability": "nonpayable",
      "type": "function"
    },
    {
      "inputs": [
        {
          "internalType": "address",
          "name": "account",
          "type": "address"
        }
      ],
      "name": "balanceOf",
      "outputs": [
        {
          "internalType": "uint256",
          "name": "",
          "type": "uint256"
        }
      ],
      "stateMutability": "view",
      "type": "function"
    },
    {
      "inputs": [],
      "name": "controller",
      "outputs": [
        {
          "internalType": "address",
          "name": "",
          "type": "address"
        }
      ],
      "stateMutability": "view",
      "type": "function"
    },
    {
      "inputs": [
        {
          "internalType": "address",
          "name": "_user",
          "type": "address"
        },
        {
          "internalType": "uint256",
          "name": "_amount",
          "type": "uint256"
        }
      ],
      "name": "controllerBurn",
      "outputs": [],
      "stateMutability": "nonpayable",
      "type": "function"
    },
    {
      "inputs": [
        {
          "internalType": "address",
          "name": "_operator",
          "type": "address"
        },
        {
          "internalType": "address",
          "name": "_user",
          "type": "address"
        },
        {
          "internalType": "uint256",
          "name": "_amount",
          "type": "uint256"
        }
      ],
      "name": "controllerBurnFrom",
      "outputs": [],
      "stateMutability": "nonpayable",
      "type": "function"
    },
    {
      "inputs": [
        {
          "internalType": "address",
          "name": "_user",
          "type": "address"
        },
        {
          "internalType": "uint256",
          "name": "_amount",
          "type": "uint256"
        }
      ],
      "name": "controllerMint",
      "outputs": [],
      "stateMutability": "nonpayable",
      "type": "function"
    },
    {
      "inputs": [],
      "name": "decimals",
      "outputs": [
        {
          "internalType": "uint8",
          "name": "",
          "type": "uint8"
        }
      ],
      "stateMutability": "view",
      "type": "function"
    },
    {
      "inputs": [],
      "name": "eip712Domain",
      "outputs": [
        {
          "internalType": "bytes1",
          "name": "fields",
          "type": "bytes1"
        },
        {
          "internalType": "string",
          "name": "name",
          "type": "string"
        },
        {
          "internalType": "string",
          "name": "version",
          "type": "string"
        },
        {
          "internalType": "uint256",
          "name": "chainId",
          "type": "uint256"
        },
        {
          "internalType": "address",
          "name": "verifyingContract",
          "type": "address"
        },
        {
          "internalType": "bytes32",
          "name": "salt",
          "type": "bytes32"
        },
        {
          "internalType": "uint256[]",
          "name": "extensions",
          "type": "uint256[]"
        }
      ],
      "stateMutability": "view",
      "type": "function"
    },
    {
      "inputs": [
        {
          "internalType": "address",
          "name": "_user",
          "type": "address"
        }
      ],
      "name": "getBalance",
      "outputs": [
        {
          "internalType": "uint256",
          "name": "",
          "type": "uint256"
        }
      ],
      "stateMutability": "view",
      "type": "function"
    },
    {
      "inputs": [],
      "name": "name",
      "outputs": [
        {
          "internalType": "string",
          "name": "",
          "type": "string"
        }
      ],
      "stateMutability": "view",
      "type": "function"
    },
    {
      "inputs": [
        {
          "internalType": "address",
          "name": "owner",
          "type": "address"
        }
      ],
      "name": "nonces",
      "outputs": [
        {
          "internalType": "uint256",
          "name": "",
          "type": "uint256"
        }
      ],
      "stateMutability": "view",
      "type": "function"
    },
    {
      "inputs": [
        {
          "internalType": "address",
          "name": "owner",
          "type": "address"
        },
        {
          "internalType": "address",
          "name": "spender",
          "type": "address"
        },
        {
          "internalType": "uint256",
          "name": "value",
          "type": "uint256"
        },
        {
          "internalType": "uint256",
          "name": "deadline",
          "type": "uint256"
        },
        {
          "internalType": "uint8",
          "name": "v",
          "type": "uint8"
        },
        {
          "internalType": "bytes32",
          "name": "r",
          "type": "bytes32"
        },
        {
          "internalType": "bytes32",
          "name": "s",
          "type": "bytes32"
        }
      ],
      "name": "permit",
      "outputs": [],
      "stateMutability": "nonpayable",
      "type": "function"
    },
    {
      "inputs": [],
      "name": "symbol",
      "outputs": [
        {
          "internalType": "string",
          "name": "",
          "type": "string"
        }
      ],
      "stateMutability": "view",
      "type": "function"
    },
    {
      "inputs": [],
      "name": "totalSupply",
      "outputs": [
        {
          "internalType": "uint256",
          "name": "",
          "type": "uint256"
        }
      ],
      "stateMutability": "view",
      "type": "function"
    },
    {
      "inputs": [
        {
          "internalType": "address",
          "name": "to",
          "type": "address"
        },
        {
          "internalType": "uint256",
          "name": "value",
          "type": "uint256"
        }
      ],
      "name": "transfer",
      "outputs": [
        {
          "internalType": "bool",
          "name": "",
          "type": "bool"
        }
      ],
      "stateMutability": "nonpayable",
      "type": "function"
    },
    {
      "inputs": [
        {
          "internalType": "address",
          "name": "from",
          "type": "address"
        },
        {
          "internalType": "address",
          "name": "to",
          "type": "address"
        },
        {
          "internalType": "uint256",
          "name": "value",
          "type": "uint256"
        }
      ],
      "name": "transferFrom",
      "outputs": [
        {
          "internalType": "bool",
          "name": "",
          "type": "bool"
        }
      ],
      "stateMutability": "nonpayable",
      "type": "function"
    }
  ],
  "bytecode": "0x6101a06040523480156200001257600080fd5b50604051620018f3380380620018f38339810160408190526200003591620003df565b838383836040518060400160405280601c81526020017f506f6f6c546f67657468657220436f6e74726f6c6c6564546f6b656e0000000081525080604051806040016040528060018152602001603160f81b815250868681600390816200009d919062000512565b506004620000ac828262000512565b50620000be9150839050600562000296565b61012052620000cf81600662000296565b61014052815160208084019190912060e052815190820120610100524660a0526200015d60e05161010051604080517f8b73c3c69bb8fe3d512ecc4cf759cc79239f7b179b0ffacaa9a75d522b39400f60208201529081019290925260608201524660808201523060a082015260009060c00160405160208183030381529060405280519060200120905090565b60805250503060c052506001600160a01b038116620001d75760405162461bcd60e51b815260206004820152602b60248201527f436f6e74726f6c6c6564546f6b656e2f636f6e74726f6c6c65722d6e6f742d7a60448201526a65726f2d6164647265737360a81b60648201526084015b60405180910390fd5b6001600160a01b0381166101605260ff8216620002375760405162461bcd60e51b815260206004820181905260248201527f436f6e74726f6c6c6564546f6b656e2f646563696d616c732d67742d7a65726f6044820152606401620001ce565b60ff8216610180526040516001600160a01b038216907fde72fc29218361f33503847e6f32be813f9ec92fc7c772bb59e46675c890fd0e9062000280908790879087906200060c565b60405180910390a250505050505050506200068a565b6000602083511015620002b657620002ae83620002cf565b9050620002c9565b81620002c3848262000512565b5060ff90505b92915050565b600080829050601f81511115620002fd578260405163305a27a960e01b8152600401620001ce919062000649565b80516200030a8262000665565b179392505050565b634e487b7160e01b600052604160045260246000fd5b60005b83811015620003455781810151838201526020016200032b565b50506000910152565b600082601f8301126200036057600080fd5b81516001600160401b03808211156200037d576200037d62000312565b604051601f8301601f19908116603f01168101908282118183101715620003a857620003a862000312565b81604052838152866020858801011115620003c257600080fd5b620003d584602083016020890162000328565b9695505050505050565b60008060008060808587031215620003f657600080fd5b84516001600160401b03808211156200040e57600080fd5b6200041c888389016200034e565b955060208701519150808211156200043357600080fd5b5062000442878288016200034e565b935050604085015160ff811681146200045a57600080fd5b60608601519092506001600160a01b03811681146200047857600080fd5b939692955090935050565b600181811c908216806200049857607f821691505b602082108103620004b957634e487b7160e01b600052602260045260246000fd5b50919050565b601f8211156200050d57600081815260208120601f850160051c81016020861015620004e85750805b601f850160051c820191505b818110156200050957828155600101620004f4565b5050505b505050565b81516001600160401b038111156200052e576200052e62000312565b62000546816200053f845462000483565b84620004bf565b602080601f8311600181146200057e5760008415620005655750858301515b600019600386901b1c1916600185901b17855562000509565b600085815260208120601f198616915b82811015620005af578886015182559484019460019091019084016200058e565b5085821015620005ce5787850151600019600388901b60f8161c191681555b5050505050600190811b01905550565b60008151808452620005f881602086016020860162000328565b601f01601f19169290920160200192915050565b606081526000620006216060830186620005de565b8281036020840152620006358186620005de565b91505060ff83166040830152949350505050565b6020815260006200065e6020830184620005de565b9392505050565b80516020808301519190811015620004b95760001960209190910360031b1b16919050565b60805160a05160c05160e05161010051610120516101405161016051610180516111e3620007106000396000610188015260008181610292015281816103df0152818161043e0152610531015260006109970152600061096a015260006108a60152600061087e015260006107d9015260006108030152600061082d01526111e36000f3fe608060405234801561001057600080fd5b50600436106101165760003560e01c80637ecebe00116100a2578063a9059cbb11610071578063a9059cbb14610254578063d505accf14610267578063dd62ed3e1461027a578063f77c47911461028d578063f8b2cb4f146102cc57600080fd5b80637ecebe001461020b57806384b0196e1461021e57806390596dd11461023957806395d89b411461024c57600080fd5b8063313ce567116100e9578063313ce567146101815780633644e515146101b25780635d7b0758146101ba578063631b5dfb146101cf57806370a08231146101e257600080fd5b806306fdde031461011b578063095ea7b31461013957806318160ddd1461015c57806323b872dd1461016e575b600080fd5b6101236102f5565b6040516101309190610ef7565b60405180910390f35b61014c610147366004610f2d565b610387565b6040519015158152602001610130565b6002545b604051908152602001610130565b61014c61017c366004610f57565b6103a1565b60405160ff7f0000000000000000000000000000000000000000000000000000000000000000168152602001610130565b6101606103c5565b6101cd6101c8366004610f2d565b6103d4565b005b6101cd6101dd366004610f57565b610433565b6101606101f0366004610f93565b6001600160a01b031660009081526020819052604090205490565b610160610219366004610f93565b6104c2565b6102266104e0565b6040516101309796959493929190610fae565b6101cd610247366004610f2d565b610526565b610123610578565b61014c610262366004610f2d565b610587565b6101cd610275366004611044565b610595565b6101606102883660046110b7565b6106cf565b6102b47f000000000000000000000000000000000000000000000000000000000000000081565b6040516001600160a01b039091168152602001610130565b6101606102da366004610f93565b6001600160a01b031660009081526008602052604090205490565b606060038054610304906110ea565b80601f0160208091040260200160405190810160405280929190818152602001828054610330906110ea565b801561037d5780601f106103525761010080835404028352916020019161037d565b820191906000526020600020905b81548152906001019060200180831161036057829003601f168201915b5050505050905090565b6000336103958185856106fa565b60019150505b92915050565b6000336103af858285610707565b6103ba85858561076d565b506001949350505050565b60006103cf6107cc565b905090565b336001600160a01b037f000000000000000000000000000000000000000000000000000000000000000016146104255760405162461bcd60e51b815260040161041c90611124565b60405180910390fd5b61042f82826108f7565b5050565b336001600160a01b037f0000000000000000000000000000000000000000000000000000000000000000161461047b5760405162461bcd60e51b815260040161041c90611124565b816001600160a01b0316836001600160a01b0316146104b3576104b38284836104a486886106cf565b6104ae9190611171565b6106fa565b6104bd828261092d565b505050565b6001600160a01b03811660009081526007602052604081205461039b565b6000606080600080600060606104f4610963565b6104fc610990565b60408051600080825260208201909252600f60f81b9b939a50919850469750309650945092509050565b336001600160a01b037f0000000000000000000000000000000000000000000000000000000000000000161461056e5760405162461bcd60e51b815260040161041c90611124565b61042f828261092d565b606060048054610304906110ea565b60003361039581858561076d565b834211156105b95760405163313c898160e11b81526004810185905260240161041c565b60007f6e71edae12b1b97f4d1f60370fef10105fa2faae0126114a169c64845d6126c98888886106068c6001600160a01b0316600090815260076020526040902080546001810190915590565b6040805160208101969096526001600160a01b0394851690860152929091166060840152608083015260a082015260c0810186905260e0016040516020818303038152906040528051906020012090506000610661826109bd565b90506000610671828787876109ea565b9050896001600160a01b0316816001600160a01b0316146106b8576040516325c0072360e11b81526001600160a01b0380831660048301528b16602482015260440161041c565b6106c38a8a8a6106fa565b50505050505050505050565b6001600160a01b03918216600090815260016020908152604080832093909416825291909152205490565b6104bd8383836001610a18565b600061071384846106cf565b90506000198114610767578181101561075857604051637dc7a0d960e11b81526001600160a01b0384166004820152602481018290526044810183905260640161041c565b61076784848484036000610a18565b50505050565b6001600160a01b03831661079757604051634b637e8f60e11b81526000600482015260240161041c565b6001600160a01b0382166107c15760405163ec442f0560e01b81526000600482015260240161041c565b6104bd838383610aed565b6000306001600160a01b037f00000000000000000000000000000000000000000000000000000000000000001614801561082557507f000000000000000000000000000000000000000000000000000000000000000046145b1561084f57507f000000000000000000000000000000000000000000000000000000000000000090565b6103cf604080517f8b73c3c69bb8fe3d512ecc4cf759cc79239f7b179b0ffacaa9a75d522b39400f60208201527f0000000000000000000000000000000000000000000000000000000000000000918101919091527f000000000000000000000000000000000000000000000000000000000000000060608201524660808201523060a082015260009060c00160405160208183030381529060405280519060200120905090565b6001600160a01b0382166109215760405163ec442f0560e01b81526000600482015260240161041c565b61042f60008383610aed565b6001600160a01b03821661095757604051634b637e8f60e11b81526000600482015260240161041c565b61042f82600083610aed565b60606103cf7f00000000000000000000000000000000000000000000000000000000000000006005610c17565b60606103cf7f00000000000000000000000000000000000000000000000000000000000000006006610c17565b600061039b6109ca6107cc565b8360405161190160f01b8152600281019290925260228201526042902090565b6000806000806109fc88888888610cc2565b925092509250610a0c8282610d91565b50909695505050505050565b6001600160a01b038416610a425760405163e602df0560e01b81526000600482015260240161041c565b6001600160a01b038316610a6c57604051634a1406b160e11b81526000600482015260240161041c565b6001600160a01b038085166000908152600160209081526040808320938716835292905220829055801561076757826001600160a01b0316846001600160a01b03167f8c5be1e5ebec7d5bd14f71427d1e84f3dd0314c0f7b2291e5b200ac8c7c3b92584604051610adf91815260200190565b60405180910390a350505050565b6001600160a01b038316610b18578060026000828254610b0d9190611184565b90915550610b8a9050565b6001600160a01b03831660009081526020819052604090205481811015610b6b5760405163391434e360e21b81526001600160a01b0385166004820152602481018290526044810183905260640161041c565b6001600160a01b03841660009081526020819052604090209082900390555b6001600160a01b038216610ba657600280548290039055610bc5565b6001600160a01b03821660009081526020819052604090208054820190555b816001600160a01b0316836001600160a01b03167fddf252ad1be2c89b69c2b068fc378daa952ba7f163c4a11628f55a4df523b3ef83604051610c0a91815260200190565b60405180910390a3505050565b606060ff8314610c3157610c2a83610e4a565b905061039b565b818054610c3d906110ea565b80601f0160208091040260200160405190810160405280929190818152602001828054610c69906110ea565b8015610cb65780601f10610c8b57610100808354040283529160200191610cb6565b820191906000526020600020905b815481529060010190602001808311610c9957829003601f168201915b5050505050905061039b565b600080807f7fffffffffffffffffffffffffffffff5d576e7357a4501ddfe92f46681b20a0841115610cfd5750600091506003905082610d87565b604080516000808252602082018084528a905260ff891692820192909252606081018790526080810186905260019060a0016020604051602081039080840390855afa158015610d51573d6000803e3d6000fd5b5050604051601f1901519150506001600160a01b038116610d7d57506000925060019150829050610d87565b9250600091508190505b9450945094915050565b6000826003811115610da557610da5611197565b03610dae575050565b6001826003811115610dc257610dc2611197565b03610de05760405163f645eedf60e01b815260040160405180910390fd5b6002826003811115610df457610df4611197565b03610e155760405163fce698f760e01b81526004810182905260240161041c565b6003826003811115610e2957610e29611197565b0361042f576040516335e2f38360e21b81526004810182905260240161041c565b60606000610e5783610e89565b604080516020808252818301909252919250600091906020820181803683375050509182525060208101929092525090565b600060ff8216601f81111561039b57604051632cd44ac360e21b815260040160405180910390fd5b6000815180845260005b81811015610ed757602081850181015186830182015201610ebb565b506000602082860101526020601f19601f83011685010191505092915050565b602081526000610f0a6020830184610eb1565b9392505050565b80356001600160a01b0381168114610f2857600080fd5b919050565b60008060408385031215610f4057600080fd5b610f4983610f11565b946020939093013593505050565b600080600060608486031215610f6c57600080fd5b610f7584610f11565b9250610f8360208501610f11565b9150604084013590509250925092565b600060208284031215610fa557600080fd5b610f0a82610f11565b60ff60f81b881681526000602060e081840152610fce60e084018a610eb1565b8381036040850152610fe0818a610eb1565b606085018990526001600160a01b038816608086015260a0850187905284810360c0860152855180825283870192509083019060005b8181101561103257835183529284019291840191600101611016565b50909c9b505050505050505050505050565b600080600080600080600060e0888a03121561105f57600080fd5b61106888610f11565b965061107660208901610f11565b95506040880135945060608801359350608088013560ff8116811461109a57600080fd5b9699959850939692959460a0840135945060c09093013592915050565b600080604083850312156110ca57600080fd5b6110d383610f11565b91506110e160208401610f11565b90509250929050565b600181811c908216806110fe57607f821691505b60208210810361111e57634e487b7160e01b600052602260045260246000fd5b50919050565b6020808252601f908201527f436f6e74726f6c6c6564546f6b656e2f6f6e6c792d636f6e74726f6c6c657200604082015260600190565b634e487b7160e01b600052601160045260246000fd5b8181038181111561039b5761039b61115b565b8082018082111561039b5761039b61115b565b634e487b7160e01b600052602160045260246000fdfea26469706673582212206258d6f5e3c122f94cfab720422913068ab0511ab8a1ae9750e6893040a6b7b264736f6c63430008140033",
  "linkReferences": {},
  "deployedLinkReferences": {}
}